{
  "contractName": "Project",
  "abi": [
    {
      "inputs": [
        {
          "internalType": "string",
          "name": "_projectTitle",
          "type": "string"
        },
        {
          "internalType": "string",
          "name": "_projectDesc",
          "type": "string"
        },
        {
          "internalType": "uint256",
          "name": "_minContributionAmount",
          "type": "uint256"
        },
        {
          "internalType": "string",
          "name": "_imgUrl",
          "type": "string"
        },
        {
          "internalType": "string",
          "name": "_folderUrl",
          "type": "string"
        },
        {
          "internalType": "bool",
          "name": "_isMap",
          "type": "bool"
        },
        {
          "internalType": "string",
          "name": "_postalAddress",
          "type": "string"
        },
        {
          "internalType": "string",
          "name": "_latitude",
          "type": "string"
        },
        {
          "internalType": "string",
          "name": "_longitude",
          "type": "string"
        },
        {
          "internalType": "string",
          "name": "_placeName",
          "type": "string"
        },
        {
          "internalType": "address",
          "name": "_creator",
          "type": "address"
        }
      ],
      "stateMutability": "nonpayable",
      "type": "constructor"
    },
    {
      "anonymous": false,
      "inputs": [
        {
          "indexed": false,
          "internalType": "address",
          "name": "_from",
          "type": "address"
        },
        {
          "indexed": false,
          "internalType": "uint256",
          "name": "_requestID",
          "type": "uint256"
        },
        {
          "indexed": false,
          "internalType": "uint256",
          "name": "_totalApprovals",
          "type": "uint256"
        }
      ],
      "name": "ApprovedReq",
      "type": "event"
    },
    {
      "anonymous": false,
      "inputs": [
        {
          "indexed": false,
          "internalType": "uint256",
          "name": "_requestID",
          "type": "uint256"
        },
        {
          "indexed": false,
          "internalType": "string",
          "name": "_reason",
          "type": "string"
        }
      ],
      "name": "CancelledReq",
      "type": "event"
    },
    {
      "anonymous": false,
      "inputs": [
        {
          "indexed": false,
          "internalType": "address",
          "name": "_from",
          "type": "address"
        },
        {
          "indexed": false,
          "internalType": "uint256",
          "name": "_value",
          "type": "uint256"
        }
      ],
      "name": "Contributed",
      "type": "event"
    },
    {
      "anonymous": false,
      "inputs": [
        {
          "indexed": false,
          "internalType": "uint256",
          "name": "requestID",
          "type": "uint256"
        }
      ],
      "name": "CreatedRequest",
      "type": "event"
    },
    {
      "anonymous": false,
      "inputs": [
        {
          "indexed": false,
          "internalType": "address",
          "name": "_from",
          "type": "address"
        },
        {
          "indexed": false,
          "internalType": "uint256",
          "name": "_requestID",
          "type": "uint256"
        },
        {
          "indexed": false,
          "internalType": "uint256",
          "name": "_totalDenials",
          "type": "uint256"
        }
      ],
      "name": "DeniedReq",
      "type": "event"
    },
    {
      "anonymous": false,
      "inputs": [
        {
          "indexed": false,
          "internalType": "uint256",
          "name": "_requestID",
          "type": "uint256"
        }
      ],
      "name": "FinalizedReq",
      "type": "event"
    },
    {
      "anonymous": false,
      "inputs": [
        {
          "indexed": false,
          "internalType": "string",
          "name": "_reason",
          "type": "string"
        }
      ],
      "name": "ProjectCancelled",
      "type": "event"
    },
    {
      "anonymous": false,
      "inputs": [
        {
          "indexed": false,
          "internalType": "uint256",
          "name": "_value",
          "type": "uint256"
        },
        {
          "indexed": false,
          "internalType": "string",
          "name": "_msg",
          "type": "string"
        }
      ],
      "name": "ProjectFinished",
      "type": "event"
    },
    {
      "inputs": [
        {
          "internalType": "address",
          "name": "",
          "type": "address"
        }
      ],
      "name": "approvers",
      "outputs": [
        {
          "internalType": "bool",
          "name": "",
          "type": "bool"
        }
      ],
      "stateMutability": "view",
      "type": "function"
    },
    {
      "inputs": [
        {
          "internalType": "address",
          "name": "",
          "type": "address"
        }
      ],
      "name": "contributions",
      "outputs": [
        {
          "internalType": "uint256",
          "name": "",
          "type": "uint256"
        }
      ],
      "stateMutability": "view",
      "type": "function"
    },
    {
      "inputs": [
        {
          "internalType": "address",
          "name": "",
          "type": "address"
        }
      ],
      "name": "contributors",
      "outputs": [
        {
          "internalType": "bool",
          "name": "",
          "type": "bool"
        }
      ],
      "stateMutability": "view",
      "type": "function"
    },
    {
      "inputs": [],
      "name": "creator",
      "outputs": [
        {
          "internalType": "address",
          "name": "",
          "type": "address"
        }
      ],
      "stateMutability": "view",
      "type": "function"
    },
    {
      "inputs": [],
      "name": "currentBalance",
      "outputs": [
        {
          "internalType": "uint256",
          "name": "",
          "type": "uint256"
        }
      ],
      "stateMutability": "view",
      "type": "function"
    },
    {
      "inputs": [],
      "name": "description",
      "outputs": [
        {
          "internalType": "string",
          "name": "",
          "type": "string"
        }
      ],
      "stateMutability": "view",
      "type": "function"
    },
    {
      "inputs": [],
      "name": "folderUrl",
      "outputs": [
        {
          "internalType": "string",
          "name": "",
          "type": "string"
        }
      ],
      "stateMutability": "view",
      "type": "function"
    },
    {
      "inputs": [],
      "name": "imageUrl",
      "outputs": [
        {
          "internalType": "string",
          "name": "",
          "type": "string"
        }
      ],
      "stateMutability": "view",
      "type": "function"
    },
    {
      "inputs": [],
      "name": "minContribution",
      "outputs": [
        {
          "internalType": "uint256",
          "name": "",
          "type": "uint256"
        }
      ],
      "stateMutability": "view",
      "type": "function"
    },
    {
      "inputs": [],
      "name": "numRequests",
      "outputs": [
        {
          "internalType": "uint256",
          "name": "",
          "type": "uint256"
        }
      ],
      "stateMutability": "view",
      "type": "function"
    },
    {
      "inputs": [
        {
          "internalType": "uint256",
          "name": "",
          "type": "uint256"
        }
      ],
      "name": "requests",
      "outputs": [
        {
          "internalType": "uint256",
          "name": "id",
          "type": "uint256"
        },
        {
          "internalType": "string",
          "name": "title",
          "type": "string"
        },
        {
          "internalType": "string",
          "name": "desc",
          "type": "string"
        },
        {
          "internalType": "string",
          "name": "milestoneId",
          "type": "string"
        },
        {
          "internalType": "uint256",
          "name": "value",
          "type": "uint256"
        },
        {
          "internalType": "address payable",
          "name": "vendorAddress",
          "type": "address"
        },
        {
          "internalType": "bool",
          "name": "isComplete",
          "type": "bool"
        },
        {
          "internalType": "uint256",
          "name": "approvalsCount",
          "type": "uint256"
        },
        {
          "internalType": "uint256",
          "name": "denialsCount",
          "type": "uint256"
        },
        {
          "internalType": "string",
          "name": "imgUrl",
          "type": "string"
        },
        {
          "internalType": "string",
          "name": "filesUrl",
          "type": "string"
        },
        {
          "internalType": "bool",
          "name": "cancelled",
          "type": "bool"
        }
      ],
      "stateMutability": "view",
      "type": "function"
    },
    {
      "inputs": [],
      "name": "title",
      "outputs": [
        {
          "internalType": "string",
          "name": "",
          "type": "string"
        }
      ],
      "stateMutability": "view",
      "type": "function"
    },
    {
      "inputs": [],
      "name": "totalPoolBalance",
      "outputs": [
        {
          "internalType": "uint256",
          "name": "",
          "type": "uint256"
        }
      ],
      "stateMutability": "view",
      "type": "function"
    },
    {
      "inputs": [
        {
          "internalType": "string",
          "name": "_reqTitle",
          "type": "string"
        },
        {
          "internalType": "string",
          "name": "_reqDesc",
          "type": "string"
        },
        {
          "internalType": "uint256",
          "name": "_value",
          "type": "uint256"
        },
        {
          "internalType": "string",
          "name": "_milestoneId",
          "type": "string"
        },
        {
          "internalType": "address payable",
          "name": "_recipient",
          "type": "address"
        },
        {
          "internalType": "string",
          "name": "_imgUrl",
          "type": "string"
        },
        {
          "internalType": "string",
          "name": "_filesUrl",
          "type": "string"
        }
      ],
      "name": "createRequests",
      "outputs": [
        {
          "internalType": "uint256",
          "name": "requestID",
          "type": "uint256"
        }
      ],
      "stateMutability": "nonpayable",
      "type": "function"
    },
    {
      "inputs": [
        {
          "internalType": "address",
          "name": "_devs",
          "type": "address"
        }
      ],
      "name": "setDevsNewAddress",
      "outputs": [
        {
          "internalType": "address",
          "name": "",
          "type": "address"
        }
      ],
      "stateMutability": "nonpayable",
      "type": "function"
    },
    {
      "inputs": [
        {
          "internalType": "uint256",
          "name": "_requestID",
          "type": "uint256"
        },
        {
          "internalType": "string",
          "name": "_reason",
          "type": "string"
        }
      ],
      "name": "cancelRequest",
      "outputs": [],
      "stateMutability": "nonpayable",
      "type": "function"
    },
    {
      "inputs": [
        {
          "internalType": "string",
          "name": "_reason",
          "type": "string"
        }
      ],
      "name": "cancelProject",
      "outputs": [],
      "stateMutability": "nonpayable",
      "type": "function"
    },
    {
      "inputs": [],
      "name": "finishProject",
      "outputs": [],
      "stateMutability": "nonpayable",
      "type": "function"
    },
    {
      "inputs": [],
      "name": "checkFees",
      "outputs": [
        {
          "internalType": "uint256",
          "name": "",
          "type": "uint256"
        }
      ],
      "stateMutability": "view",
      "type": "function"
    },
    {
      "inputs": [],
      "name": "transferFees",
      "outputs": [],
      "stateMutability": "nonpayable",
      "type": "function"
    },
    {
      "inputs": [
        {
          "internalType": "bool",
          "name": "_isSignedIn",
          "type": "bool"
        }
      ],
      "name": "contribute",
      "outputs": [],
      "stateMutability": "payable",
      "type": "function"
    },
    {
      "inputs": [
        {
          "internalType": "uint256",
          "name": "requestID",
          "type": "uint256"
        }
      ],
      "name": "approveRequest",
      "outputs": [],
      "stateMutability": "nonpayable",
      "type": "function"
    },
    {
      "inputs": [
        {
          "internalType": "uint256",
          "name": "requestID",
          "type": "uint256"
        }
      ],
      "name": "denyRequest",
      "outputs": [],
      "stateMutability": "nonpayable",
      "type": "function"
    },
    {
      "inputs": [
        {
          "internalType": "uint256",
          "name": "_requestID",
          "type": "uint256"
        }
      ],
      "name": "finalizeRequest",
      "outputs": [],
      "stateMutability": "nonpayable",
      "type": "function"
    },
    {
      "inputs": [],
      "name": "checkRefund",
      "outputs": [
        {
          "internalType": "uint256",
          "name": "refund",
          "type": "uint256"
        }
      ],
      "stateMutability": "view",
      "type": "function"
    },
    {
      "inputs": [],
      "name": "getRefund",
      "outputs": [],
      "stateMutability": "nonpayable",
      "type": "function"
    }
  ],
  "bytecode": "0x608060405260006004556000600555600060065560006009556000600a556000600b60006101000a81548160ff0219169083151502179055506000600b60016101000a81548160ff02191690831515021790555073087f5052fbcd7c02dd45fb9907c57f1eccc2be25601460006101000a81548173ffffffffffffffffffffffffffffffffffffffff021916908373ffffffffffffffffffffffffffffffffffffffff160217905550601460009054906101000a900473ffffffffffffffffffffffffffffffffffffffff16601560006101000a81548173ffffffffffffffffffffffffffffffffffffffff021916908373ffffffffffffffffffffffffffffffffffffffff1602179055506000601860006101000a81548160ff0219169083151502179055503480156200013357600080fd5b5060405162003efc38038062003efc833981810160405281019062000159919062000406565b806000806101000a81548173ffffffffffffffffffffffffffffffffffffffff021916908373ffffffffffffffffffffffffffffffffffffffff1602179055508a60019080519060200190620001b192919062000293565b508960029080519060200190620001ca92919062000293565b508760079080519060200190620001e392919062000293565b508660089080519060200190620001fc92919062000293565b508860038190555085600f60006101000a81548160ff02191690831515021790555084601090805190602001906200023692919062000293565b5083601190805190602001906200024f92919062000293565b5082601290805190602001906200026892919062000293565b5081601390805190602001906200028192919062000293565b50505050505050505050505062000827565b828054620002a190620006ea565b90600052602060002090601f016020900481019282620002c5576000855562000311565b82601f10620002e057805160ff191683800117855562000311565b8280016001018555821562000311579182015b8281111562000310578251825591602001919060010190620002f3565b5b50905062000320919062000324565b5090565b5b808211156200033f57600081600090555060010162000325565b5090565b60006200035a620003548462000634565b6200060b565b905082815260208101848484011115620003795762000378620007b9565b5b62000386848285620006b4565b509392505050565b6000815190506200039f81620007d9565b92915050565b600081519050620003b681620007f3565b92915050565b600082601f830112620003d457620003d3620007b4565b5b8151620003e684826020860162000343565b91505092915050565b60008151905062000400816200080d565b92915050565b60008060008060008060008060008060006101608c8e0312156200042f576200042e620007c3565b5b60008c015167ffffffffffffffff81111562000450576200044f620007be565b5b6200045e8e828f01620003bc565b9b505060208c015167ffffffffffffffff811115620004825762000481620007be565b5b620004908e828f01620003bc565b9a50506040620004a38e828f01620003ef565b99505060608c015167ffffffffffffffff811115620004c757620004c6620007be565b5b620004d58e828f01620003bc565b98505060808c015167ffffffffffffffff811115620004f957620004f8620007be565b5b620005078e828f01620003bc565b97505060a06200051a8e828f01620003a5565b96505060c08c015167ffffffffffffffff8111156200053e576200053d620007be565b5b6200054c8e828f01620003bc565b95505060e08c015167ffffffffffffffff81111562000570576200056f620007be565b5b6200057e8e828f01620003bc565b9450506101008c015167ffffffffffffffff811115620005a357620005a2620007be565b5b620005b18e828f01620003bc565b9350506101208c015167ffffffffffffffff811115620005d657620005d5620007be565b5b620005e48e828f01620003bc565b925050610140620005f88e828f016200038e565b9150509295989b509295989b9093969950565b6000620006176200062a565b905062000625828262000720565b919050565b6000604051905090565b600067ffffffffffffffff82111562000652576200065162000785565b5b6200065d82620007c8565b9050602081019050919050565b600062000677826200068a565b9050919050565b60008115159050919050565b600073ffffffffffffffffffffffffffffffffffffffff82169050919050565b6000819050919050565b60005b83811015620006d4578082015181840152602081019050620006b7565b83811115620006e4576000848401525b50505050565b600060028204905060018216806200070357607f821691505b602082108114156200071a576200071962000756565b5b50919050565b6200072b82620007c8565b810181811067ffffffffffffffff821117156200074d576200074c62000785565b5b80604052505050565b7f4e487b7100000000000000000000000000000000000000000000000000000000600052602260045260246000fd5b7f4e487b7100000000000000000000000000000000000000000000000000000000600052604160045260246000fd5b600080fd5b600080fd5b600080fd5b600080fd5b6000601f19601f8301169050919050565b620007e4816200066a565b8114620007f057600080fd5b50565b620007fe816200067e565b81146200080a57600080fd5b50565b6200081881620006aa565b81146200082457600080fd5b50565b6136c580620008376000396000f3fe6080604052600436106101815760003560e01c806381d12c58116100d1578063ab4e6c6d1161008a578063c2fbe7bc11610064578063c2fbe7bc14610572578063ce845d1d14610589578063d7d1bbdb146105b4578063eb9db01f146105dd57610181565b8063ab4e6c6d146104f3578063aba8315014610530578063b2d5ae441461055b57610181565b806381d12c58146103c45780638ff0d0541461040c57806394c246d5146104495780639fb42b1f14610474578063a394c3a61461049f578063aaffadf3146104c857610181565b80634a79d50c1161013e57806369788c8e1161011857806369788c8e1461032e5780637284e4161461034557806379f96c57146103705780637be441d11461039957610181565b80634a79d50c146102ad5780635026d63e146102d857806358e9d3d51461030357610181565b806302d05d3f1461018657806303441006146101b15780630a144391146101da5780631f6d494214610217578063406569631461025457806342e94c9014610270575b600080fd5b34801561019257600080fd5b5061019b610606565b6040516101a89190612a3a565b60405180910390f35b3480156101bd57600080fd5b506101d860048036038101906101d3919061272f565b61062a565b005b3480156101e657600080fd5b5061020160048036038101906101fc919061255e565b61097f565b60405161020e9190612ab5565b60405180910390f35b34801561022357600080fd5b5061023e6004803603810190610239919061255e565b61099f565b60405161024b9190612ab5565b60405180910390f35b61026e6004803603810190610269919061258b565b6109bf565b005b34801561027c57600080fd5b506102976004803603810190610292919061255e565b610bbb565b6040516102a49190612cb2565b60405180910390f35b3480156102b957600080fd5b506102c2610bd3565b6040516102cf9190612ad0565b60405180910390f35b3480156102e457600080fd5b506102ed610c61565b6040516102fa9190612cb2565b60405180910390f35b34801561030f57600080fd5b50610318610c67565b6040516103259190612ad0565b60405180910390f35b34801561033a57600080fd5b50610343610cf5565b005b34801561035157600080fd5b5061035a610e86565b6040516103679190612ad0565b60405180910390f35b34801561037c57600080fd5b506103976004803603810190610392919061272f565b610f14565b005b3480156103a557600080fd5b506103ae611184565b6040516103bb9190612cb2565b60405180910390f35b3480156103d057600080fd5b506103eb60048036038101906103e6919061272f565b61121e565b6040516104039c9b9a99989796959493929190612cfd565b60405180910390f35b34801561041857600080fd5b50610433600480360381019061042e9190612601565b611560565b6040516104409190612cb2565b60405180910390f35b34801561045557600080fd5b5061045e611784565b60405161046b9190612cb2565b60405180910390f35b34801561048057600080fd5b506104896118eb565b6040516104969190612cb2565b60405180910390f35b3480156104ab57600080fd5b506104c660048036038101906104c191906125b8565b6118f1565b005b3480156104d457600080fd5b506104dd611a74565b6040516104ea9190612cb2565b60405180910390f35b3480156104ff57600080fd5b5061051a6004803603810190610515919061255e565b611a7a565b6040516105279190612a3a565b60405180910390f35b34801561053c57600080fd5b50610545611b77565b6040516105529190612ad0565b60405180910390f35b34801561056757600080fd5b50610570611c05565b005b34801561057e57600080fd5b50610587611ea0565b005b34801561059557600080fd5b5061059e611ff0565b6040516105ab9190612cb2565b60405180910390f35b3480156105c057600080fd5b506105db60048036038101906105d6919061272f565b611ff6565b005b3480156105e957600080fd5b5061060460048036038101906105ff919061275c565b612266565b005b60008054906101000a900473ffffffffffffffffffffffffffffffffffffffff1681565b60008054906101000a900473ffffffffffffffffffffffffffffffffffffffff1673ffffffffffffffffffffffffffffffffffffffff163373ffffffffffffffffffffffffffffffffffffffff16146106b8576040517f08c379a00000000000000000000000000000000000000000000000000000000081526004016106af90612b52565b60405180910390fd5b6000600e6000838152602001908152602001600020905080600a0160009054906101000a900460ff1615610721576040517f08c379a000000000000000000000000000000000000000000000000000000000815260040161071890612c92565b60405180910390fd5b60026009546107309190612ed0565b816006015411610775576040517f08c379a000000000000000000000000000000000000000000000000000000000815260040161076c90612b72565b60405180910390fd5b8060050160149054906101000a900460ff16156107c7576040517f08c379a00000000000000000000000000000000000000000000000000000000081526004016107be90612af2565b60405180910390fd5b601860009054906101000a900460ff1615610817576040517f08c379a000000000000000000000000000000000000000000000000000000000815260040161080e90612bf2565b60405180910390fd5b6001601860006101000a81548160ff0219169083151502179055506000610846826004015460056127106123ca565b9050600082600401549050818161085d9190612f5b565b90508260040154600460008282546108759190612f5b565b925050819055506000836004018190555081600660008282546108989190612e7a565b9250508190555060018360050160146101000a81548160ff0219169083151502179055508260050160009054906101000a900473ffffffffffffffffffffffffffffffffffffffff1673ffffffffffffffffffffffffffffffffffffffff166108fc829081150290604051600060405180830381858888f19350505050158015610926573d6000803e3d6000fd5b506000601860006101000a81548160ff0219169083151502179055507fbd4b6d8fe937b68fec69985b01c1e12a7ec4af495b0e3f1cbe6c7faf803da00c846040516109719190612cb2565b60405180910390a150505050565b600c6020528060005260406000206000915054906101000a900460ff1681565b60166020528060005260406000206000915054906101000a900460ff1681565b60006109cf3460056127106123ca565b9050600034905081816109e29190612f5b565b905080600460008282546109f69190612e7a565b925050819055508060056000828254610a0f9190612e7a565b925050819055508160066000828254610a289190612e7a565b925050819055506003543410610b7d57600115158315151415610ab6576001600c60003373ffffffffffffffffffffffffffffffffffffffff1673ffffffffffffffffffffffffffffffffffffffff16815260200190815260200160002060006101000a81548160ff02191690831515021790555060096000815480929190610ab09061308e565b91905055505b80601760003373ffffffffffffffffffffffffffffffffffffffff1673ffffffffffffffffffffffffffffffffffffffff1681526020019081526020016000206000828254610b059190612e7a565b92505081905550600a6000815480929190610b1f9061308e565b91905055506001601660003373ffffffffffffffffffffffffffffffffffffffff1673ffffffffffffffffffffffffffffffffffffffff16815260200190815260200160002060006101000a81548160ff0219169083151502179055505b7f62722348256371b5147820d6cad90c40fd2da1ccee18c3ed52c0bca5a61dbbab3334604051610bae929190612a55565b60405180910390a1505050565b60176020528060005260406000206000915090505481565b60018054610be09061302b565b80601f0160208091040260200160405190810160405280929190818152602001828054610c0c9061302b565b8015610c595780601f10610c2e57610100808354040283529160200191610c59565b820191906000526020600020905b815481529060010190602001808311610c3c57829003601f168201915b505050505081565b60055481565b60088054610c749061302b565b80601f0160208091040260200160405190810160405280929190818152602001828054610ca09061302b565b8015610ced5780601f10610cc257610100808354040283529160200191610ced565b820191906000526020600020905b815481529060010190602001808311610cd057829003601f168201915b505050505081565b60008054906101000a900473ffffffffffffffffffffffffffffffffffffffff1673ffffffffffffffffffffffffffffffffffffffff163373ffffffffffffffffffffffffffffffffffffffff1614610d83576040517f08c379a0000000000000000000000000000000000000000000000000000000008152600401610d7a90612b52565b60405180910390fd5b600b60009054906101000a900460ff1615610dd3576040517f08c379a0000000000000000000000000000000000000000000000000000000008152600401610dca90612c52565b60405180910390fd5b600b60019054906101000a900460ff1615610e23576040517f08c379a0000000000000000000000000000000000000000000000000000000008152600401610e1a90612b92565b60405180910390fd5b6001600b60016101000a81548160ff0219169083151502179055507f228bde8d7b3e6d4daac3ece35c4b1678d183c118eacf7a2e50767e7ec667dfc8600454600554610e6f9190612f5b565b604051610e7c9190612dda565b60405180910390a1565b60028054610e939061302b565b80601f0160208091040260200160405190810160405280929190818152602001828054610ebf9061302b565b8015610f0c5780601f10610ee157610100808354040283529160200191610f0c565b820191906000526020600020905b815481529060010190602001808311610eef57829003601f168201915b505050505081565b6000600e60008381526020019081526020016000209050600c60003373ffffffffffffffffffffffffffffffffffffffff1673ffffffffffffffffffffffffffffffffffffffff16815260200190815260200160002060009054906101000a900460ff16610fb7576040517f08c379a0000000000000000000000000000000000000000000000000000000008152600401610fae90612c12565b60405180910390fd5b80600a0160009054906101000a900460ff1615611009576040517f08c379a000000000000000000000000000000000000000000000000000000000815260040161100090612c92565b60405180910390fd5b8060050160149054906101000a900460ff161561105b576040517f08c379a000000000000000000000000000000000000000000000000000000000815260040161105290612b12565b60405180910390fd5b600081600b0160003373ffffffffffffffffffffffffffffffffffffffff1673ffffffffffffffffffffffffffffffffffffffff1681526020019081526020016000205414156110e0576040517f08c379a00000000000000000000000000000000000000000000000000000000081526004016110d790612bd2565b60405180910390fd5b8060070160008154809291906110f59061308e565b9190505550600281600b0160003373ffffffffffffffffffffffffffffffffffffffff1673ffffffffffffffffffffffffffffffffffffffff168152602001908152602001600020819055507fd8c0741cd95f4e648a7d4557b5784a862cc1cedadd79801b595fbea90e3533f73383836007015460405161117893929190612a7e565b60405180910390a15050565b6000601460009054906101000a900473ffffffffffffffffffffffffffffffffffffffff1673ffffffffffffffffffffffffffffffffffffffff163373ffffffffffffffffffffffffffffffffffffffff1614611216576040517f08c379a000000000000000000000000000000000000000000000000000000000815260040161120d90612c32565b60405180910390fd5b600654905090565b600e6020528060005260406000206000915090508060000154908060010180546112479061302b565b80601f01602080910402602001604051908101604052809291908181526020018280546112739061302b565b80156112c05780601f10611295576101008083540402835291602001916112c0565b820191906000526020600020905b8154815290600101906020018083116112a357829003601f168201915b5050505050908060020180546112d59061302b565b80601f01602080910402602001604051908101604052809291908181526020018280546113019061302b565b801561134e5780601f106113235761010080835404028352916020019161134e565b820191906000526020600020905b81548152906001019060200180831161133157829003601f168201915b5050505050908060030180546113639061302b565b80601f016020809104026020016040519081016040528092919081815260200182805461138f9061302b565b80156113dc5780601f106113b1576101008083540402835291602001916113dc565b820191906000526020600020905b8154815290600101906020018083116113bf57829003601f168201915b5050505050908060040154908060050160009054906101000a900473ffffffffffffffffffffffffffffffffffffffff16908060050160149054906101000a900460ff169080600601549080600701549080600801805461143c9061302b565b80601f01602080910402602001604051908101604052809291908181526020018280546114689061302b565b80156114b55780601f1061148a576101008083540402835291602001916114b5565b820191906000526020600020905b81548152906001019060200180831161149857829003601f168201915b5050505050908060090180546114ca9061302b565b80601f01602080910402602001604051908101604052809291908181526020018280546114f69061302b565b80156115435780601f1061151857610100808354040283529160200191611543565b820191906000526020600020905b81548152906001019060200180831161152657829003601f168201915b50505050509080600a0160009054906101000a900460ff1690508c565b60008060009054906101000a900473ffffffffffffffffffffffffffffffffffffffff1673ffffffffffffffffffffffffffffffffffffffff163373ffffffffffffffffffffffffffffffffffffffff16146115f1576040517f08c379a00000000000000000000000000000000000000000000000000000000081526004016115e890612b52565b60405180910390fd5b600d60008154809291906116049061308e565b9190505590506000600e60008381526020019081526020016000209050818160000181905550888160010190805190602001906116429291906123f7565b508781600201908051906020019061165b9291906123f7565b50868160040181905550848160050160006101000a81548173ffffffffffffffffffffffffffffffffffffffff021916908373ffffffffffffffffffffffffffffffffffffffff160217905550858160030190805190602001906116c09291906123f7565b50838160080190805190602001906116d99291906123f7565b50828160090190805190602001906116f29291906123f7565b5060008160050160146101000a81548160ff0219169083151502179055506000816006018190555060008160070181905550600081600a0160006101000a81548160ff0219169083151502179055507fa56ff5af4615f68b6691437c1c71588277670ee3aa965a731cc319e5ef0ac71c826040516117709190612cb2565b60405180910390a150979650505050505050565b6000601660003373ffffffffffffffffffffffffffffffffffffffff1673ffffffffffffffffffffffffffffffffffffffff16815260200190815260200160002060009054906101000a900460ff16611812576040517f08c379a000000000000000000000000000000000000000000000000000000000815260040161180990612c72565b60405180910390fd5b60011515600b60019054906101000a900460ff1615151480611847575060011515600b60009054906101000a900460ff161515145b611886576040517f08c379a000000000000000000000000000000000000000000000000000000000815260040161187d90612b32565b60405180910390fd5b601760003373ffffffffffffffffffffffffffffffffffffffff1673ffffffffffffffffffffffffffffffffffffffff168152602001908152602001600020549050600454816118d69190612f01565b9050600554816118e69190612ed0565b905090565b600d5481565b60008054906101000a900473ffffffffffffffffffffffffffffffffffffffff1673ffffffffffffffffffffffffffffffffffffffff163373ffffffffffffffffffffffffffffffffffffffff161461197f576040517f08c379a000000000000000000000000000000000000000000000000000000000815260040161197690612b52565b60405180910390fd5b600b60009054906101000a900460ff16156119cf576040517f08c379a00000000000000000000000000000000000000000000000000000000081526004016119c690612c52565b60405180910390fd5b600b60019054906101000a900460ff1615611a1f576040517f08c379a0000000000000000000000000000000000000000000000000000000008152600401611a1690612b92565b60405180910390fd5b6001600b60006101000a81548160ff0219169083151502179055507f739de6489fb6bd59f9572597d4a03fe6e7c81556c531378bda06e66475dc637d81604051611a699190612ad0565b60405180910390a150565b60035481565b6000601460009054906101000a900473ffffffffffffffffffffffffffffffffffffffff1673ffffffffffffffffffffffffffffffffffffffff163373ffffffffffffffffffffffffffffffffffffffff1614611b0c576040517f08c379a0000000000000000000000000000000000000000000000000000000008152600401611b0390612c32565b60405180910390fd5b81601460006101000a81548173ffffffffffffffffffffffffffffffffffffffff021916908373ffffffffffffffffffffffffffffffffffffffff160217905550601460009054906101000a900473ffffffffffffffffffffffffffffffffffffffff169050919050565b60078054611b849061302b565b80601f0160208091040260200160405190810160405280929190818152602001828054611bb09061302b565b8015611bfd5780601f10611bd257610100808354040283529160200191611bfd565b820191906000526020600020905b815481529060010190602001808311611be057829003601f168201915b505050505081565b601660003373ffffffffffffffffffffffffffffffffffffffff1673ffffffffffffffffffffffffffffffffffffffff16815260200190815260200160002060009054906101000a900460ff16611c91576040517f08c379a0000000000000000000000000000000000000000000000000000000008152600401611c8890612c72565b60405180910390fd5b60011515600b60019054906101000a900460ff1615151480611cc6575060011515600b60009054906101000a900460ff161515145b611d05576040517f08c379a0000000000000000000000000000000000000000000000000000000008152600401611cfc90612b32565b60405180910390fd5b6000601760003373ffffffffffffffffffffffffffffffffffffffff1673ffffffffffffffffffffffffffffffffffffffff1681526020019081526020016000205411611d5157600080fd5b6000601760003373ffffffffffffffffffffffffffffffffffffffff1673ffffffffffffffffffffffffffffffffffffffff168152602001908152602001600020549050600060045482611da59190612f01565b905060055481611db59190612ed0565b90506000611dc78260056127106123ca565b90506000601760003373ffffffffffffffffffffffffffffffffffffffff1673ffffffffffffffffffffffffffffffffffffffff168152602001908152602001600020819055508160046000828254611e209190612f5b565b925050819055508060066000828254611e399190612e7a565b925050819055508082611e4c9190612f5b565b915060003390508073ffffffffffffffffffffffffffffffffffffffff166108fc849081150290604051600060405180830381858888f19350505050158015611e99573d6000803e3d6000fd5b5050505050565b601460009054906101000a900473ffffffffffffffffffffffffffffffffffffffff1673ffffffffffffffffffffffffffffffffffffffff163373ffffffffffffffffffffffffffffffffffffffff1614611f30576040517f08c379a0000000000000000000000000000000000000000000000000000000008152600401611f2790612c32565b60405180910390fd5b600060065411611f75576040517f08c379a0000000000000000000000000000000000000000000000000000000008152600401611f6c90612bb2565b60405180910390fd5b600060065490506000600681905550601560009054906101000a900473ffffffffffffffffffffffffffffffffffffffff1673ffffffffffffffffffffffffffffffffffffffff166108fc829081150290604051600060405180830381858888f19350505050158015611fec573d6000803e3d6000fd5b5050565b60045481565b6000600e60008381526020019081526020016000209050600c60003373ffffffffffffffffffffffffffffffffffffffff1673ffffffffffffffffffffffffffffffffffffffff16815260200190815260200160002060009054906101000a900460ff16612099576040517f08c379a000000000000000000000000000000000000000000000000000000000815260040161209090612c12565b60405180910390fd5b80600a0160009054906101000a900460ff16156120eb576040517f08c379a00000000000000000000000000000000000000000000000000000000081526004016120e290612c92565b60405180910390fd5b8060050160149054906101000a900460ff161561213d576040517f08c379a000000000000000000000000000000000000000000000000000000000815260040161213490612b12565b60405180910390fd5b600081600b0160003373ffffffffffffffffffffffffffffffffffffffff1673ffffffffffffffffffffffffffffffffffffffff1681526020019081526020016000205414156121c2576040517f08c379a00000000000000000000000000000000000000000000000000000000081526004016121b990612bd2565b60405180910390fd5b8060060160008154809291906121d79061308e565b9190505550600181600b0160003373ffffffffffffffffffffffffffffffffffffffff1673ffffffffffffffffffffffffffffffffffffffff168152602001908152602001600020819055507fc722aeb354db7ce1dfb5f05d6537417c8b86b0e254d60ad3835a1b155862a42a3383836006015460405161225a93929190612a7e565b60405180910390a15050565b60008054906101000a900473ffffffffffffffffffffffffffffffffffffffff1673ffffffffffffffffffffffffffffffffffffffff163373ffffffffffffffffffffffffffffffffffffffff16146122f4576040517f08c379a00000000000000000000000000000000000000000000000000000000081526004016122eb90612b52565b60405180910390fd5b600e6000838152602001908152602001600020600a0160009054906101000a900460ff1615612358576040517f08c379a000000000000000000000000000000000000000000000000000000000815260040161234f90612c92565b60405180910390fd5b6000600e60008481526020019081526020016000209050600181600a0160006101000a81548160ff0219169083151502179055507fd27e3d9a9ae0fb728bfbdb457c9b09290886c043b331b9995192cc7f7129c9b183836040516123bd929190612ccd565b60405180910390a1505050565b60008084905083816123dc9190612f01565b905082816123ea9190612ed0565b9050809150509392505050565b8280546124039061302b565b90600052602060002090601f016020900481019282612425576000855561246c565b82601f1061243e57805160ff191683800117855561246c565b8280016001018555821561246c579182015b8281111561246b578251825591602001919060010190612450565b5b509050612479919061247d565b5090565b5b8082111561249657600081600090555060010161247e565b5090565b60006124ad6124a884612e2d565b612e08565b9050828152602081018484840111156124c9576124c8613198565b5b6124d4848285612fe9565b509392505050565b6000813590506124eb81613633565b92915050565b6000813590506125008161364a565b92915050565b60008135905061251581613661565b92915050565b600082601f8301126125305761252f613193565b5b813561254084826020860161249a565b91505092915050565b60008135905061255881613678565b92915050565b600060208284031215612574576125736131a2565b5b6000612582848285016124dc565b91505092915050565b6000602082840312156125a1576125a06131a2565b5b60006125af84828501612506565b91505092915050565b6000602082840312156125ce576125cd6131a2565b5b600082013567ffffffffffffffff8111156125ec576125eb61319d565b5b6125f88482850161251b565b91505092915050565b600080600080600080600060e0888a0312156126205761261f6131a2565b5b600088013567ffffffffffffffff81111561263e5761263d61319d565b5b61264a8a828b0161251b565b975050602088013567ffffffffffffffff81111561266b5761266a61319d565b5b6126778a828b0161251b565b96505060406126888a828b01612549565b955050606088013567ffffffffffffffff8111156126a9576126a861319d565b5b6126b58a828b0161251b565b94505060806126c68a828b016124f1565b93505060a088013567ffffffffffffffff8111156126e7576126e661319d565b5b6126f38a828b0161251b565b92505060c088013567ffffffffffffffff8111156127145761271361319d565b5b6127208a828b0161251b565b91505092959891949750929550565b600060208284031215612745576127446131a2565b5b600061275384828501612549565b91505092915050565b60008060408385031215612773576127726131a2565b5b600061278185828601612549565b925050602083013567ffffffffffffffff8111156127a2576127a161319d565b5b6127ae8582860161251b565b9150509250929050565b6127c181612fa1565b82525050565b6127d081612f8f565b82525050565b6127df81612fb3565b82525050565b60006127f082612e5e565b6127fa8185612e69565b935061280a818560208601612ff8565b612813816131a7565b840191505092915050565b600061282b602783612e69565b9150612836826131b8565b604082019050919050565b600061284e602c83612e69565b915061285982613207565b604082019050919050565b6000612871606183612e69565b915061287c82613256565b608082019050919050565b6000612894602383612e69565b915061289f826132f1565b604082019050919050565b60006128b7604583612e69565b91506128c282613340565b606082019050919050565b60006128da602583612e69565b91506128e5826133b5565b604082019050919050565b60006128fd601a83612e69565b915061290882613404565b602082019050919050565b6000612920601683612e69565b915061292b8261342d565b602082019050919050565b6000612943601983612e69565b915061294e82613456565b602082019050919050565b6000612966602f83612e69565b91506129718261347f565b604082019050919050565b6000612989603683612e69565b9150612994826134ce565b604082019050919050565b60006129ac602883612e69565b91506129b78261351d565b604082019050919050565b60006129cf603583612e69565b91506129da8261356c565b604082019050919050565b60006129f2603883612e69565b91506129fd826135bb565b604082019050919050565b6000612a15601d83612e69565b9150612a208261360a565b602082019050919050565b612a3481612fdf565b82525050565b6000602082019050612a4f60008301846127c7565b92915050565b6000604082019050612a6a60008301856127c7565b612a776020830184612a2b565b9392505050565b6000606082019050612a9360008301866127c7565b612aa06020830185612a2b565b612aad6040830184612a2b565b949350505050565b6000602082019050612aca60008301846127d6565b92915050565b60006020820190508181036000830152612aea81846127e5565b905092915050565b60006020820190508181036000830152612b0b8161281e565b9050919050565b60006020820190508181036000830152612b2b81612841565b9050919050565b60006020820190508181036000830152612b4b81612864565b9050919050565b60006020820190508181036000830152612b6b81612887565b9050919050565b60006020820190508181036000830152612b8b816128aa565b9050919050565b60006020820190508181036000830152612bab816128cd565b9050919050565b60006020820190508181036000830152612bcb816128f0565b9050919050565b60006020820190508181036000830152612beb81612913565b9050919050565b60006020820190508181036000830152612c0b81612936565b9050919050565b60006020820190508181036000830152612c2b81612959565b9050919050565b60006020820190508181036000830152612c4b8161297c565b9050919050565b60006020820190508181036000830152612c6b8161299f565b9050919050565b60006020820190508181036000830152612c8b816129c2565b9050919050565b60006020820190508181036000830152612cab816129e5565b9050919050565b6000602082019050612cc76000830184612a2b565b92915050565b6000604082019050612ce26000830185612a2b565b8181036020830152612cf481846127e5565b90509392505050565b600061018082019050612d13600083018f612a2b565b8181036020830152612d25818e6127e5565b90508181036040830152612d39818d6127e5565b90508181036060830152612d4d818c6127e5565b9050612d5c608083018b612a2b565b612d6960a083018a6127b8565b612d7660c08301896127d6565b612d8360e0830188612a2b565b612d91610100830187612a2b565b818103610120830152612da481866127e5565b9050818103610140830152612db981856127e5565b9050612dc96101608301846127d6565b9d9c50505050505050505050505050565b6000604082019050612def6000830184612a2b565b8181036020830152612e0081612a08565b905092915050565b6000612e12612e23565b9050612e1e828261305d565b919050565b6000604051905090565b600067ffffffffffffffff821115612e4857612e47613164565b5b612e51826131a7565b9050602081019050919050565b600081519050919050565b600082825260208201905092915050565b6000612e8582612fdf565b9150612e9083612fdf565b9250827fffffffffffffffffffffffffffffffffffffffffffffffffffffffffffffffff03821115612ec557612ec46130d7565b5b828201905092915050565b6000612edb82612fdf565b9150612ee683612fdf565b925082612ef657612ef5613106565b5b828204905092915050565b6000612f0c82612fdf565b9150612f1783612fdf565b9250817fffffffffffffffffffffffffffffffffffffffffffffffffffffffffffffffff0483118215151615612f5057612f4f6130d7565b5b828202905092915050565b6000612f6682612fdf565b9150612f7183612fdf565b925082821015612f8457612f836130d7565b5b828203905092915050565b6000612f9a82612fbf565b9050919050565b6000612fac82612fbf565b9050919050565b60008115159050919050565b600073ffffffffffffffffffffffffffffffffffffffff82169050919050565b6000819050919050565b82818337600083830152505050565b60005b83811015613016578082015181840152602081019050612ffb565b83811115613025576000848401525b50505050565b6000600282049050600182168061304357607f821691505b6020821081141561305757613056613135565b5b50919050565b613066826131a7565b810181811067ffffffffffffffff8211171561308557613084613164565b5b80604052505050565b600061309982612fdf565b91507fffffffffffffffffffffffffffffffffffffffffffffffffffffffffffffffff8214156130cc576130cb6130d7565b5b600182019050919050565b7f4e487b7100000000000000000000000000000000000000000000000000000000600052601160045260246000fd5b7f4e487b7100000000000000000000000000000000000000000000000000000000600052601260045260246000fd5b7f4e487b7100000000000000000000000000000000000000000000000000000000600052602260045260246000fd5b7f4e487b7100000000000000000000000000000000000000000000000000000000600052604160045260246000fd5b600080fd5b600080fd5b600080fd5b600080fd5b6000601f19601f8301169050919050565b7f56656e646f72206973207061696420616c726561647920666f7220746869732060008201527f7265717565737400000000000000000000000000000000000000000000000000602082015250565b7f5265717565737420616c726561647920636f6d706c6574656420616e6420766560008201527f6e646f7220697320706169640000000000000000000000000000000000000000602082015250565b7f596f752063616e206f6e6c792074616b6520726566756e64206166746572207460008201527f68652070726f6a6563742069732066696e6973686564206f6e2063616e63656c60208201527f6c6564206279207468652063726561746f72206f66207468652070726f6a656360408201527f7400000000000000000000000000000000000000000000000000000000000000606082015250565b7f4f6e6c792043726561746f722063616e2063616c6c20746869732066756e637460008201527f696f6e0000000000000000000000000000000000000000000000000000000000602082015250565b7f526571756972657320617070726f76616c732066726f6d206174206c6561737460008201527f206d6f7265207468616e2068616c66206f6620746f74616c20636f6e7472696260208201527f75746f7273000000000000000000000000000000000000000000000000000000604082015250565b7f50726f6a65637420616c72656164792066696e6973686564207375636365737360008201527f66756c6c79000000000000000000000000000000000000000000000000000000602082015250565b7f5468657265206973206e6f206665657320617661696c61626c65000000000000600082015250565b7f596f752063616e20766f7465206f6e6c79206f6e636500000000000000000000600082015250565b7f52652d656e7472616e742063616c6c2064657465637465642100000000000000600082015250565b7f596f75206e65656420746f20626520616e20617070726f76657220746f20617060008201527f70726f7665206120726571756573740000000000000000000000000000000000602082015250565b7f4f6e6c7920646576656c6f70657273206f6620746869732070726f6a6563742060008201527f63616e2063616c6c20746869732066756e6374696f6e00000000000000000000602082015250565b7f50726f6a65637420616c72656164792063616e63656c6c65642062792074686560008201527f2043726561746f72000000000000000000000000000000000000000000000000602082015250565b7f596f75206d7573742068616420636f6e747269627574656420746f207468652060008201527f70726f6a65637420746f2067657420726566756e640000000000000000000000602082015250565b7f5265717565737420616c72656164792063616e63656c6c65642062792074686560008201527f2063726561746f72206f6620746869732050726f6a6563740000000000000000602082015250565b7f50726f6a6563742046696e6973686564205375636365737366756c6c79000000600082015250565b61363c81612f8f565b811461364757600080fd5b50565b61365381612fa1565b811461365e57600080fd5b50565b61366a81612fb3565b811461367557600080fd5b50565b61368181612fdf565b811461368c57600080fd5b5056fea264697066735822122083f0607d517dda23d4c17031414f4aa6397899bf3fa77fa2d00380da2cc68d8c64736f6c63430008070033",
  "immutableReferences": {},
  "source": "// SPDX-License-Identifier: GPL-3.0\r\npragma solidity >=0.4.16 < 0.9.0;\r\n\r\n// Importing OpenZeppelin's SafeMath Implementation\r\n// No longer needed after solidity 0.8.0\r\n// import \"./libraries/SafeMath.sol\";\r\n\r\ncontract Project {\r\n    // using SafeMath for uint256;\r\n    \r\n    event Contributed(address _from, uint _value);\r\n    event CreatedRequest(uint requestID);\r\n    event ApprovedReq(address _from, uint _requestID, uint _totalApprovals);\r\n    event DeniedReq(address _from, uint _requestID, uint _totalDenials);\r\n    event CancelledReq(uint _requestID, string _reason);\r\n    event FinalizedReq(uint _requestID);\r\n    event ProjectCancelled(string _reason);\r\n    event ProjectFinished(uint _value, string _msg);\r\n    \r\n    struct Request {\r\n        uint id;\r\n        string title;\r\n        string desc;\r\n        string milestoneId;\r\n        uint256 value;\r\n        address payable vendorAddress;\r\n        bool isComplete;\r\n        uint approvalsCount;\r\n        uint denialsCount;\r\n        string imgUrl;\r\n        string filesUrl;\r\n        bool cancelled;\r\n        mapping (address => uint) votes;    // 1 for positive vote, 2 for negative vote\r\n    }\r\n    \r\n    // creator is the Project Creator\r\n    address public creator;\r\n    \r\n    string public title;\r\n    string public description;\r\n    uint256 public minContribution;\r\n    uint256 public currentBalance = 0;\r\n    uint256 public totalPoolBalance = 0;\r\n    uint256 fees = 0;\r\n    string public imageUrl;\r\n    string public folderUrl;\r\n    uint approversCount = 0;\r\n    uint contributorsCount = 0;\r\n    bool cancelled = false;\r\n    bool finished = false;\r\n    \r\n    // only signed in accounts\r\n    mapping(address => bool) public approvers;\r\n    uint public numRequests;\r\n    mapping(uint => Request) public requests;\r\n    \r\n    // Location and Place details\r\n    bool isMap;\r\n    string postalAddress;\r\n    string lat;\r\n    string lng;\r\n    string placeName;\r\n    \r\n    address devs = 0x087F5052fBcD7C02DD45fb9907C57F1EccC2bE25;\r\n    address payable devAddress = payable(devs);\r\n    \r\n    // all contributors\r\n    mapping (address => bool) public contributors;\r\n    \r\n    // total contributions of all contributors\r\n    mapping (address => uint256) public contributions;\r\n    \r\n    modifier onlyCreator() {\r\n        require(msg.sender == creator, \"Only Creator can call this function\");\r\n        _;\r\n    }\r\n    \r\n    modifier onlyDevs() {\r\n        require(msg.sender == devs, \"Only developers of this project can call this function\");\r\n        _;\r\n    }\r\n    \r\n    constructor (\r\n        string memory _projectTitle, \r\n        string memory _projectDesc, \r\n        uint256 _minContributionAmount, \r\n        string memory _imgUrl, \r\n        string memory _folderUrl,\r\n        bool _isMap,\r\n        string memory _postalAddress,\r\n        string memory _latitude,\r\n        string memory _longitude,\r\n        string memory _placeName,\r\n        address _creator\r\n    ) {\r\n        creator = _creator;\r\n        title = _projectTitle;\r\n        description = _projectDesc;\r\n        imageUrl = _imgUrl;\r\n        folderUrl = _folderUrl;\r\n        minContribution = _minContributionAmount;\r\n        isMap = _isMap;\r\n        postalAddress = _postalAddress;\r\n        lat = _latitude;\r\n        lng = _longitude;\r\n        placeName = _placeName;\r\n    }\r\n\r\n    // To create requests\r\n    function createRequests(\r\n        string memory _reqTitle,\r\n        string memory _reqDesc, \r\n        uint256 _value, \r\n        string memory _milestoneId, \r\n        address payable _recipient, \r\n        string memory _imgUrl,\r\n        string memory _filesUrl\r\n    ) public onlyCreator returns (uint requestID) {\r\n        requestID = numRequests++;\r\n        Request storage req = requests[requestID];\r\n        req.id = requestID;\r\n        req.title = _reqTitle;\r\n        req.desc = _reqDesc;\r\n        req.value = _value;\r\n        req.vendorAddress = _recipient;\r\n        req.milestoneId = _milestoneId;\r\n        req.imgUrl = _imgUrl;\r\n        req.filesUrl = _filesUrl;\r\n        req.isComplete = false;\r\n        req.approvalsCount = 0;\r\n        req.denialsCount = 0;\r\n        req.cancelled = false;\r\n        \r\n        emit CreatedRequest(requestID);\r\n    }\r\n    \r\n    // calc 0.05% fee\r\n    function percentage(uint256 value, uint256 reqParts, uint256 totalParts) internal pure returns (uint256) {\r\n        uint256 total = value;\r\n        total *= (reqParts);\r\n        total /= (totalParts);\r\n        return total;\r\n    }\r\n    \r\n    // Sets the developers account address, and only be called by the developers\r\n    function setDevsNewAddress(address _devs) external onlyDevs returns (address) {\r\n        devs = _devs;\r\n        return devs;\r\n    }\r\n    \r\n    // Cancels the request, and can only be called by the creator of the project\r\n    function cancelRequest(uint _requestID, string memory _reason) external onlyCreator {\r\n        require(!requests[_requestID].cancelled, \"Request already cancelled by the creator of this Project\");\r\n        Request storage req = requests[_requestID];\r\n        req.cancelled = true;\r\n        \r\n        emit CancelledReq(_requestID, _reason);\r\n    }\r\n    \r\n    // Cancels the project, and can only be called by the creator of the project\r\n    function cancelProject(string memory _reason) external onlyCreator {\r\n        require(!cancelled, \"Project already cancelled by the Creator\");\r\n        require(!finished, \"Project already finished successfully\");\r\n        cancelled = true;\r\n        \r\n        emit ProjectCancelled(_reason);\r\n    }\r\n    \r\n    // After the project is finished this function is called, and can only be called by the creator of the project\r\n    function finishProject() external onlyCreator {\r\n        require(!cancelled, \"Project already cancelled by the Creator\");\r\n        require(!finished, \"Project already finished successfully\");\r\n        finished = true;\r\n        \r\n        emit ProjectFinished(totalPoolBalance - currentBalance, \"Project Finished Successfully\");\r\n    }\r\n    \r\n    // Check how much fees is accumulated till now, can only be called by the devs\r\n    function checkFees() external view onlyDevs returns (uint256) {\r\n        return fees;\r\n    }\r\n    \r\n    // Transfers the fee amount to developers address\r\n    function transferFees() external onlyDevs {\r\n        require(fees > 0, \"There is no fees available\");\r\n        uint256 feeAmount = fees;\r\n        fees = 0;\r\n        devAddress.transfer(feeAmount);\r\n    }\r\n    \r\n    // Contribute function\r\n    function contribute(bool _isSignedIn) public payable {\r\n        uint256 fee = percentage(msg.value, 5, 10000);\r\n        uint256 amount = msg.value;\r\n        amount -= fee;\r\n        currentBalance += (amount);\r\n        totalPoolBalance += (amount);\r\n        fees += (fee);\r\n        \r\n        if(msg.value >= minContribution) {\r\n            if(_isSignedIn == true) {\r\n                approvers[msg.sender] = true;\r\n                approversCount++;\r\n            }\r\n            contributions[msg.sender] += (amount);\r\n            contributorsCount++;\r\n            contributors[msg.sender] = true;\r\n        }\r\n        \r\n        emit Contributed(msg.sender, msg.value);\r\n    }\r\n    \r\n    // Approvers can call this function to approve a particular request\r\n    function approveRequest (uint requestID) public {\r\n        Request storage req = requests[requestID];\r\n        \r\n        require(approvers[msg.sender], \"You need to be an approver to approve a request\");\r\n        require(!req.cancelled, \"Request already cancelled by the creator of this Project\");\r\n        require(!req.isComplete, \"Request already completed and vendor is paid\");\r\n        require(!(req.votes[msg.sender] == 0), \"You can vote only once\");\r\n        \r\n        req.approvalsCount++;\r\n        req.votes[msg.sender] = 1;\r\n        \r\n        emit ApprovedReq(msg.sender, requestID, req.approvalsCount);\r\n    }\r\n    \r\n    // Deniers can call this function to approve a particular request\r\n    function denyRequest (uint requestID) public {\r\n        Request storage req = requests[requestID];\r\n        \r\n        require(approvers[msg.sender], \"You need to be an approver to approve a request\");\r\n        require(!req.cancelled, \"Request already cancelled by the creator of this Project\");\r\n        require(!req.isComplete, \"Request already completed and vendor is paid\");\r\n        require(!(req.votes[msg.sender] == 0), \"You can vote only once\");\r\n        \r\n        req.denialsCount++;\r\n        req.votes[msg.sender] = 2;\r\n        \r\n        emit DeniedReq(msg.sender, requestID, req.denialsCount);\r\n    }\r\n    \r\n    // After voting, creator will call this function to send the money to the vendor\r\n    bool locked = false;    // just to prevent re-entrant call from a contract\r\n    function finalizeRequest (uint _requestID) public onlyCreator {\r\n        Request storage req = requests[_requestID];\r\n        \r\n        require(!req.cancelled, \"Request already cancelled by the creator of this Project\");\r\n        require(req.approvalsCount > approversCount/2, \"Requires approvals from at least more than half of total contributors\");\r\n        require(!req.isComplete, \"Vendor is paid already for this request\");\r\n        \r\n        require(!locked, \"Re-entrant call detected!\");\r\n        locked = true;\r\n        \r\n        uint256 fee = percentage(req.value, 5, 10000);\r\n        \r\n        uint256 amount = req.value;\r\n        amount -= (fee);\r\n        currentBalance -= (req.value);\r\n        req.value = 0;\r\n        fees += (fee);\r\n        req.isComplete = true;\r\n        \r\n        req.vendorAddress.transfer(amount);\r\n        \r\n        locked = false;\r\n        \r\n        emit FinalizedReq(_requestID);\r\n    }\r\n    \r\n    // To check amount of refund\r\n    function checkRefund() external view returns (uint256 refund) {\r\n        require(contributors[msg.sender], \"You must had contributed to the project to get refund\");\r\n        require(finished == true || cancelled == true, \"You can only take refund after the project is finished on cancelled by the creator of the project\");\r\n        \r\n        refund = contributions[msg.sender];\r\n        refund *= (currentBalance);\r\n        refund /= (totalPoolBalance);\r\n        return refund;\r\n    }\r\n    \r\n    // After the project is finished or cancelled by the creator, contributors can call this function to take back refund\r\n    function getRefund() public {\r\n        require(contributors[msg.sender], \"You must had contributed to the project to get refund\");\r\n        require(finished == true || cancelled == true, \"You can only take refund after the project is finished on cancelled by the creator of the project\");\r\n        require(contributions[msg.sender] > 0);\r\n        \r\n        uint256 amount = contributions[msg.sender];\r\n        uint256 refundAmount = (amount * currentBalance);\r\n        refundAmount /= (totalPoolBalance);\r\n        \r\n        uint256 fee = percentage(refundAmount, 5, 10000);\r\n        contributions[msg.sender] = 0;\r\n        currentBalance -= (refundAmount);\r\n        fees += (fee);\r\n        refundAmount -= (fee);\r\n        \r\n        address payable refundAddress = payable(msg.sender);\r\n        refundAddress.transfer(refundAmount);\r\n    }\r\n}",
  "sourcePath": "D:\\Node projects\\Blockchain Apps\\BizFund-Ethereum-Backend\\contracts\\Project.sol",
  "compiler": {
    "name": "solc",
    "version": "0.8.7+commit.e28d00a7.Emscripten.clang"
  },
  "schemaVersion": "3.4.3",
  "updatedAt": "2021-08-25T21:47:58.539Z",
  "devdoc": {
    "kind": "dev",
    "methods": {},
    "version": 1
  },
  "userdoc": {
    "kind": "user",
    "methods": {},
    "version": 1
  }
}