{
  "contractName": "Project",
  "abi": [
    {
      "inputs": [
        {
          "internalType": "string",
          "name": "_projectTitle",
          "type": "string"
        },
        {
          "internalType": "string",
          "name": "_projectDesc",
          "type": "string"
        },
        {
          "internalType": "uint256",
          "name": "_minContributionAmount",
          "type": "uint256"
        },
        {
          "internalType": "string",
          "name": "_imgUrl",
          "type": "string"
        },
        {
          "internalType": "string",
          "name": "_folderUrl",
          "type": "string"
        },
        {
          "internalType": "bool",
          "name": "_isMap",
          "type": "bool"
        },
        {
          "internalType": "string",
          "name": "_postalAddress",
          "type": "string"
        },
        {
          "internalType": "string",
          "name": "_latitude",
          "type": "string"
        },
        {
          "internalType": "string",
          "name": "_longitude",
          "type": "string"
        },
        {
          "internalType": "string",
          "name": "_placeName",
          "type": "string"
        },
        {
          "internalType": "address",
          "name": "_creator",
          "type": "address"
        }
      ],
      "stateMutability": "nonpayable",
      "type": "constructor"
    },
    {
      "anonymous": false,
      "inputs": [
        {
          "indexed": false,
          "internalType": "address",
          "name": "_from",
          "type": "address"
        },
        {
          "indexed": false,
          "internalType": "uint256",
          "name": "_requestID",
          "type": "uint256"
        },
        {
          "indexed": false,
          "internalType": "uint256",
          "name": "_totalApprovals",
          "type": "uint256"
        }
      ],
      "name": "ApprovedReq",
      "type": "event"
    },
    {
      "anonymous": false,
      "inputs": [
        {
          "indexed": false,
          "internalType": "uint256",
          "name": "_requestID",
          "type": "uint256"
        },
        {
          "indexed": false,
          "internalType": "string",
          "name": "_reason",
          "type": "string"
        }
      ],
      "name": "CancelledReq",
      "type": "event"
    },
    {
      "anonymous": false,
      "inputs": [
        {
          "indexed": false,
          "internalType": "address",
          "name": "_from",
          "type": "address"
        },
        {
          "indexed": false,
          "internalType": "uint256",
          "name": "_value",
          "type": "uint256"
        }
      ],
      "name": "Contributed",
      "type": "event"
    },
    {
      "anonymous": false,
      "inputs": [
        {
          "indexed": false,
          "internalType": "uint256",
          "name": "requestID",
          "type": "uint256"
        }
      ],
      "name": "CreatedRequest",
      "type": "event"
    },
    {
      "anonymous": false,
      "inputs": [
        {
          "indexed": false,
          "internalType": "address",
          "name": "_from",
          "type": "address"
        },
        {
          "indexed": false,
          "internalType": "uint256",
          "name": "_requestID",
          "type": "uint256"
        },
        {
          "indexed": false,
          "internalType": "uint256",
          "name": "_totalDenials",
          "type": "uint256"
        }
      ],
      "name": "DeniedReq",
      "type": "event"
    },
    {
      "anonymous": false,
      "inputs": [
        {
          "indexed": false,
          "internalType": "uint256",
          "name": "_requestID",
          "type": "uint256"
        }
      ],
      "name": "FinalizedReq",
      "type": "event"
    },
    {
      "anonymous": false,
      "inputs": [
        {
          "indexed": false,
          "internalType": "string",
          "name": "_reason",
          "type": "string"
        }
      ],
      "name": "ProjectCancelled",
      "type": "event"
    },
    {
      "anonymous": false,
      "inputs": [
        {
          "indexed": false,
          "internalType": "uint256",
          "name": "_value",
          "type": "uint256"
        },
        {
          "indexed": false,
          "internalType": "string",
          "name": "_msg",
          "type": "string"
        }
      ],
      "name": "ProjectFinished",
      "type": "event"
    },
    {
      "inputs": [
        {
          "internalType": "address",
          "name": "",
          "type": "address"
        }
      ],
      "name": "approvers",
      "outputs": [
        {
          "internalType": "bool",
          "name": "",
          "type": "bool"
        }
      ],
      "stateMutability": "view",
      "type": "function"
    },
    {
      "inputs": [
        {
          "internalType": "address",
          "name": "",
          "type": "address"
        }
      ],
      "name": "contributions",
      "outputs": [
        {
          "internalType": "uint256",
          "name": "",
          "type": "uint256"
        }
      ],
      "stateMutability": "view",
      "type": "function"
    },
    {
      "inputs": [
        {
          "internalType": "address",
          "name": "",
          "type": "address"
        }
      ],
      "name": "contributors",
      "outputs": [
        {
          "internalType": "bool",
          "name": "",
          "type": "bool"
        }
      ],
      "stateMutability": "view",
      "type": "function"
    },
    {
      "inputs": [],
      "name": "creator",
      "outputs": [
        {
          "internalType": "address",
          "name": "",
          "type": "address"
        }
      ],
      "stateMutability": "view",
      "type": "function"
    },
    {
      "inputs": [],
      "name": "currentBalance",
      "outputs": [
        {
          "internalType": "uint256",
          "name": "",
          "type": "uint256"
        }
      ],
      "stateMutability": "view",
      "type": "function"
    },
    {
      "inputs": [],
      "name": "description",
      "outputs": [
        {
          "internalType": "string",
          "name": "",
          "type": "string"
        }
      ],
      "stateMutability": "view",
      "type": "function"
    },
    {
      "inputs": [],
      "name": "folderUrl",
      "outputs": [
        {
          "internalType": "string",
          "name": "",
          "type": "string"
        }
      ],
      "stateMutability": "view",
      "type": "function"
    },
    {
      "inputs": [],
      "name": "imageUrl",
      "outputs": [
        {
          "internalType": "string",
          "name": "",
          "type": "string"
        }
      ],
      "stateMutability": "view",
      "type": "function"
    },
    {
      "inputs": [],
      "name": "minContribution",
      "outputs": [
        {
          "internalType": "uint256",
          "name": "",
          "type": "uint256"
        }
      ],
      "stateMutability": "view",
      "type": "function"
    },
    {
      "inputs": [],
      "name": "numRequests",
      "outputs": [
        {
          "internalType": "uint256",
          "name": "",
          "type": "uint256"
        }
      ],
      "stateMutability": "view",
      "type": "function"
    },
    {
      "inputs": [
        {
          "internalType": "uint256",
          "name": "",
          "type": "uint256"
        }
      ],
      "name": "requests",
      "outputs": [
        {
          "internalType": "uint256",
          "name": "id",
          "type": "uint256"
        },
        {
          "internalType": "string",
          "name": "title",
          "type": "string"
        },
        {
          "internalType": "string",
          "name": "desc",
          "type": "string"
        },
        {
          "internalType": "string",
          "name": "milestoneId",
          "type": "string"
        },
        {
          "internalType": "uint256",
          "name": "value",
          "type": "uint256"
        },
        {
          "internalType": "address payable",
          "name": "vendorAddress",
          "type": "address"
        },
        {
          "internalType": "bool",
          "name": "isComplete",
          "type": "bool"
        },
        {
          "internalType": "uint256",
          "name": "approvalsCount",
          "type": "uint256"
        },
        {
          "internalType": "uint256",
          "name": "denialsCount",
          "type": "uint256"
        },
        {
          "internalType": "string",
          "name": "imgUrl",
          "type": "string"
        },
        {
          "internalType": "string",
          "name": "filesUrl",
          "type": "string"
        },
        {
          "internalType": "bool",
          "name": "cancelled",
          "type": "bool"
        }
      ],
      "stateMutability": "view",
      "type": "function"
    },
    {
      "inputs": [],
      "name": "title",
      "outputs": [
        {
          "internalType": "string",
          "name": "",
          "type": "string"
        }
      ],
      "stateMutability": "view",
      "type": "function"
    },
    {
      "inputs": [],
      "name": "totalPoolBalance",
      "outputs": [
        {
          "internalType": "uint256",
          "name": "",
          "type": "uint256"
        }
      ],
      "stateMutability": "view",
      "type": "function"
    },
    {
      "inputs": [
        {
          "internalType": "string",
          "name": "_reqTitle",
          "type": "string"
        },
        {
          "internalType": "string",
          "name": "_reqDesc",
          "type": "string"
        },
        {
          "internalType": "uint256",
          "name": "_value",
          "type": "uint256"
        },
        {
          "internalType": "string",
          "name": "_milestoneId",
          "type": "string"
        },
        {
          "internalType": "address payable",
          "name": "_recipient",
          "type": "address"
        },
        {
          "internalType": "string",
          "name": "_imgUrl",
          "type": "string"
        },
        {
          "internalType": "string",
          "name": "_filesUrl",
          "type": "string"
        }
      ],
      "name": "createRequests",
      "outputs": [
        {
          "internalType": "uint256",
          "name": "requestID",
          "type": "uint256"
        }
      ],
      "stateMutability": "nonpayable",
      "type": "function"
    },
    {
      "inputs": [
        {
          "internalType": "address",
          "name": "_devs",
          "type": "address"
        }
      ],
      "name": "setDevsNewAddress",
      "outputs": [
        {
          "internalType": "address",
          "name": "",
          "type": "address"
        }
      ],
      "stateMutability": "nonpayable",
      "type": "function"
    },
    {
      "inputs": [
        {
          "internalType": "uint256",
          "name": "_requestID",
          "type": "uint256"
        },
        {
          "internalType": "string",
          "name": "_reason",
          "type": "string"
        }
      ],
      "name": "cancelRequest",
      "outputs": [],
      "stateMutability": "nonpayable",
      "type": "function"
    },
    {
      "inputs": [
        {
          "internalType": "string",
          "name": "_reason",
          "type": "string"
        }
      ],
      "name": "cancelProject",
      "outputs": [],
      "stateMutability": "nonpayable",
      "type": "function"
    },
    {
      "inputs": [],
      "name": "finishProject",
      "outputs": [],
      "stateMutability": "nonpayable",
      "type": "function"
    },
    {
      "inputs": [],
      "name": "checkFees",
      "outputs": [
        {
          "internalType": "uint256",
          "name": "",
          "type": "uint256"
        }
      ],
      "stateMutability": "view",
      "type": "function"
    },
    {
      "inputs": [],
      "name": "transferFees",
      "outputs": [],
      "stateMutability": "nonpayable",
      "type": "function"
    },
    {
      "inputs": [
        {
          "internalType": "bool",
          "name": "_isSignedIn",
          "type": "bool"
        }
      ],
      "name": "contribute",
      "outputs": [],
      "stateMutability": "payable",
      "type": "function"
    },
    {
      "inputs": [
        {
          "internalType": "uint256",
          "name": "requestID",
          "type": "uint256"
        }
      ],
      "name": "approveRequest",
      "outputs": [],
      "stateMutability": "nonpayable",
      "type": "function"
    },
    {
      "inputs": [
        {
          "internalType": "uint256",
          "name": "requestID",
          "type": "uint256"
        }
      ],
      "name": "denyRequest",
      "outputs": [],
      "stateMutability": "nonpayable",
      "type": "function"
    },
    {
      "inputs": [
        {
          "internalType": "uint256",
          "name": "_requestID",
          "type": "uint256"
        }
      ],
      "name": "finalizeRequest",
      "outputs": [],
      "stateMutability": "nonpayable",
      "type": "function"
    },
    {
      "inputs": [],
      "name": "checkRefund",
      "outputs": [
        {
          "internalType": "uint256",
          "name": "refund",
          "type": "uint256"
        }
      ],
      "stateMutability": "view",
      "type": "function"
    },
    {
      "inputs": [],
      "name": "getRefund",
      "outputs": [],
      "stateMutability": "nonpayable",
      "type": "function"
    }
  ],
  "bytecode": "0x608060405260006004556000600555600060065560006009556000600a556000600b60006101000a81548160ff0219169083151502179055506000600b60016101000a81548160ff02191690831515021790555073087f5052fbcd7c02dd45fb9907c57f1eccc2be25601460006101000a81548173ffffffffffffffffffffffffffffffffffffffff021916908373ffffffffffffffffffffffffffffffffffffffff160217905550601460009054906101000a900473ffffffffffffffffffffffffffffffffffffffff16601560006101000a81548173ffffffffffffffffffffffffffffffffffffffff021916908373ffffffffffffffffffffffffffffffffffffffff1602179055506000601860006101000a81548160ff0219169083151502179055503480156200013357600080fd5b5060405162003fd738038062003fd7833981810160405281019062000159919062000406565b806000806101000a81548173ffffffffffffffffffffffffffffffffffffffff021916908373ffffffffffffffffffffffffffffffffffffffff1602179055508a60019080519060200190620001b192919062000293565b508960029080519060200190620001ca92919062000293565b508760079080519060200190620001e392919062000293565b508660089080519060200190620001fc92919062000293565b508860038190555085600f60006101000a81548160ff02191690831515021790555084601090805190602001906200023692919062000293565b5083601190805190602001906200024f92919062000293565b5082601290805190602001906200026892919062000293565b5081601390805190602001906200028192919062000293565b50505050505050505050505062000827565b828054620002a190620006ea565b90600052602060002090601f016020900481019282620002c5576000855562000311565b82601f10620002e057805160ff191683800117855562000311565b8280016001018555821562000311579182015b8281111562000310578251825591602001919060010190620002f3565b5b50905062000320919062000324565b5090565b5b808211156200033f57600081600090555060010162000325565b5090565b60006200035a620003548462000634565b6200060b565b905082815260208101848484011115620003795762000378620007b9565b5b62000386848285620006b4565b509392505050565b6000815190506200039f81620007d9565b92915050565b600081519050620003b681620007f3565b92915050565b600082601f830112620003d457620003d3620007b4565b5b8151620003e684826020860162000343565b91505092915050565b60008151905062000400816200080d565b92915050565b60008060008060008060008060008060006101608c8e0312156200042f576200042e620007c3565b5b60008c015167ffffffffffffffff81111562000450576200044f620007be565b5b6200045e8e828f01620003bc565b9b505060208c015167ffffffffffffffff811115620004825762000481620007be565b5b620004908e828f01620003bc565b9a50506040620004a38e828f01620003ef565b99505060608c015167ffffffffffffffff811115620004c757620004c6620007be565b5b620004d58e828f01620003bc565b98505060808c015167ffffffffffffffff811115620004f957620004f8620007be565b5b620005078e828f01620003bc565b97505060a06200051a8e828f01620003a5565b96505060c08c015167ffffffffffffffff8111156200053e576200053d620007be565b5b6200054c8e828f01620003bc565b95505060e08c015167ffffffffffffffff81111562000570576200056f620007be565b5b6200057e8e828f01620003bc565b9450506101008c015167ffffffffffffffff811115620005a357620005a2620007be565b5b620005b18e828f01620003bc565b9350506101208c015167ffffffffffffffff811115620005d657620005d5620007be565b5b620005e48e828f01620003bc565b925050610140620005f88e828f016200038e565b9150509295989b509295989b9093969950565b6000620006176200062a565b905062000625828262000720565b919050565b6000604051905090565b600067ffffffffffffffff82111562000652576200065162000785565b5b6200065d82620007c8565b9050602081019050919050565b600062000677826200068a565b9050919050565b60008115159050919050565b600073ffffffffffffffffffffffffffffffffffffffff82169050919050565b6000819050919050565b60005b83811015620006d4578082015181840152602081019050620006b7565b83811115620006e4576000848401525b50505050565b600060028204905060018216806200070357607f821691505b602082108114156200071a576200071962000756565b5b50919050565b6200072b82620007c8565b810181811067ffffffffffffffff821117156200074d576200074c62000785565b5b80604052505050565b7f4e487b7100000000000000000000000000000000000000000000000000000000600052602260045260246000fd5b7f4e487b7100000000000000000000000000000000000000000000000000000000600052604160045260246000fd5b600080fd5b600080fd5b600080fd5b600080fd5b6000601f19601f8301169050919050565b620007e4816200066a565b8114620007f057600080fd5b50565b620007fe816200067e565b81146200080a57600080fd5b50565b6200081881620006aa565b81146200082457600080fd5b50565b6137a080620008376000396000f3fe6080604052600436106101815760003560e01c806381d12c58116100d1578063ab4e6c6d1161008a578063c2fbe7bc11610064578063c2fbe7bc14610572578063ce845d1d14610589578063d7d1bbdb146105b4578063eb9db01f146105dd57610181565b8063ab4e6c6d146104f3578063aba8315014610530578063b2d5ae441461055b57610181565b806381d12c58146103c45780638ff0d0541461040c57806394c246d5146104495780639fb42b1f14610474578063a394c3a61461049f578063aaffadf3146104c857610181565b80634a79d50c1161013e57806369788c8e1161011857806369788c8e1461032e5780637284e4161461034557806379f96c57146103705780637be441d11461039957610181565b80634a79d50c146102ad5780635026d63e146102d857806358e9d3d51461030357610181565b806302d05d3f1461018657806303441006146101b15780630a144391146101da5780631f6d494214610217578063406569631461025457806342e94c9014610270575b600080fd5b34801561019257600080fd5b5061019b610606565b6040516101a89190612aa6565b60405180910390f35b3480156101bd57600080fd5b506101d860048036038101906101d39190612778565b61062a565b005b3480156101e657600080fd5b5061020160048036038101906101fc91906125a7565b6109c8565b60405161020e9190612b21565b60405180910390f35b34801561022357600080fd5b5061023e600480360381019061023991906125a7565b6109e8565b60405161024b9190612b21565b60405180910390f35b61026e600480360381019061026991906125d4565b610a08565b005b34801561027c57600080fd5b50610297600480360381019061029291906125a7565b610c04565b6040516102a49190612d3e565b60405180910390f35b3480156102b957600080fd5b506102c2610c1c565b6040516102cf9190612b3c565b60405180910390f35b3480156102e457600080fd5b506102ed610caa565b6040516102fa9190612d3e565b60405180910390f35b34801561030f57600080fd5b50610318610cb0565b6040516103259190612b3c565b60405180910390f35b34801561033a57600080fd5b50610343610d3e565b005b34801561035157600080fd5b5061035a610ecf565b6040516103679190612b3c565b60405180910390f35b34801561037c57600080fd5b5061039760048036038101906103929190612778565b610f5d565b005b3480156103a557600080fd5b506103ae6111cd565b6040516103bb9190612d3e565b60405180910390f35b3480156103d057600080fd5b506103eb60048036038101906103e69190612778565b611267565b6040516104039c9b9a99989796959493929190612d89565b60405180910390f35b34801561041857600080fd5b50610433600480360381019061042e919061264a565b6115a9565b6040516104409190612d3e565b60405180910390f35b34801561045557600080fd5b5061045e6117cd565b60405161046b9190612d3e565b60405180910390f35b34801561048057600080fd5b50610489611934565b6040516104969190612d3e565b60405180910390f35b3480156104ab57600080fd5b506104c660048036038101906104c19190612601565b61193a565b005b3480156104d457600080fd5b506104dd611abd565b6040516104ea9190612d3e565b60405180910390f35b3480156104ff57600080fd5b5061051a600480360381019061051591906125a7565b611ac3565b6040516105279190612aa6565b60405180910390f35b34801561053c57600080fd5b50610545611bc0565b6040516105529190612b3c565b60405180910390f35b34801561056757600080fd5b50610570611c4e565b005b34801561057e57600080fd5b50610587611ee9565b005b34801561059557600080fd5b5061059e612039565b6040516105ab9190612d3e565b60405180910390f35b3480156105c057600080fd5b506105db60048036038101906105d69190612778565b61203f565b005b3480156105e957600080fd5b5061060460048036038101906105ff91906127a5565b6122af565b005b60008054906101000a900473ffffffffffffffffffffffffffffffffffffffff1681565b60008054906101000a900473ffffffffffffffffffffffffffffffffffffffff1673ffffffffffffffffffffffffffffffffffffffff163373ffffffffffffffffffffffffffffffffffffffff16146106b8576040517f08c379a00000000000000000000000000000000000000000000000000000000081526004016106af90612bbe565b60405180910390fd5b6000600e6000838152602001908152602001600020905080600a0160009054906101000a900460ff1615610721576040517f08c379a000000000000000000000000000000000000000000000000000000000815260040161071890612d1e565b60405180910390fd5b8060050160149054906101000a900460ff1615610773576040517f08c379a000000000000000000000000000000000000000000000000000000000815260040161076a90612b5e565b60405180910390fd5b806004015460045410156107bc576040517f08c379a00000000000000000000000000000000000000000000000000000000081526004016107b390612cde565b60405180910390fd5b60026009546107cb9190612f5c565b816006015411610810576040517f08c379a000000000000000000000000000000000000000000000000000000000815260040161080790612bde565b60405180910390fd5b601860009054906101000a900460ff1615610860576040517f08c379a000000000000000000000000000000000000000000000000000000000815260040161085790612c5e565b60405180910390fd5b6001601860006101000a81548160ff021916908315150217905550600061088f82600401546005612710612413565b905060008260040154905081816108a69190612fe7565b90508260040154600460008282546108be9190612fe7565b925050819055506000836004018190555081600660008282546108e19190612f06565b9250508190555060018360050160146101000a81548160ff0219169083151502179055508260050160009054906101000a900473ffffffffffffffffffffffffffffffffffffffff1673ffffffffffffffffffffffffffffffffffffffff166108fc829081150290604051600060405180830381858888f1935050505015801561096f573d6000803e3d6000fd5b506000601860006101000a81548160ff0219169083151502179055507fbd4b6d8fe937b68fec69985b01c1e12a7ec4af495b0e3f1cbe6c7faf803da00c846040516109ba9190612d3e565b60405180910390a150505050565b600c6020528060005260406000206000915054906101000a900460ff1681565b60166020528060005260406000206000915054906101000a900460ff1681565b6000610a18346005612710612413565b905060003490508181610a2b9190612fe7565b90508060046000828254610a3f9190612f06565b925050819055508060056000828254610a589190612f06565b925050819055508160066000828254610a719190612f06565b925050819055506003543410610bc657600115158315151415610aff576001600c60003373ffffffffffffffffffffffffffffffffffffffff1673ffffffffffffffffffffffffffffffffffffffff16815260200190815260200160002060006101000a81548160ff02191690831515021790555060096000815480929190610af99061311a565b91905055505b80601760003373ffffffffffffffffffffffffffffffffffffffff1673ffffffffffffffffffffffffffffffffffffffff1681526020019081526020016000206000828254610b4e9190612f06565b92505081905550600a6000815480929190610b689061311a565b91905055506001601660003373ffffffffffffffffffffffffffffffffffffffff1673ffffffffffffffffffffffffffffffffffffffff16815260200190815260200160002060006101000a81548160ff0219169083151502179055505b7f62722348256371b5147820d6cad90c40fd2da1ccee18c3ed52c0bca5a61dbbab3334604051610bf7929190612ac1565b60405180910390a1505050565b60176020528060005260406000206000915090505481565b60018054610c29906130b7565b80601f0160208091040260200160405190810160405280929190818152602001828054610c55906130b7565b8015610ca25780601f10610c7757610100808354040283529160200191610ca2565b820191906000526020600020905b815481529060010190602001808311610c8557829003601f168201915b505050505081565b60055481565b60088054610cbd906130b7565b80601f0160208091040260200160405190810160405280929190818152602001828054610ce9906130b7565b8015610d365780601f10610d0b57610100808354040283529160200191610d36565b820191906000526020600020905b815481529060010190602001808311610d1957829003601f168201915b505050505081565b60008054906101000a900473ffffffffffffffffffffffffffffffffffffffff1673ffffffffffffffffffffffffffffffffffffffff163373ffffffffffffffffffffffffffffffffffffffff1614610dcc576040517f08c379a0000000000000000000000000000000000000000000000000000000008152600401610dc390612bbe565b60405180910390fd5b600b60009054906101000a900460ff1615610e1c576040517f08c379a0000000000000000000000000000000000000000000000000000000008152600401610e1390612cbe565b60405180910390fd5b600b60019054906101000a900460ff1615610e6c576040517f08c379a0000000000000000000000000000000000000000000000000000000008152600401610e6390612bfe565b60405180910390fd5b6001600b60016101000a81548160ff0219169083151502179055507f228bde8d7b3e6d4daac3ece35c4b1678d183c118eacf7a2e50767e7ec667dfc8600454600554610eb89190612fe7565b604051610ec59190612e66565b60405180910390a1565b60028054610edc906130b7565b80601f0160208091040260200160405190810160405280929190818152602001828054610f08906130b7565b8015610f555780601f10610f2a57610100808354040283529160200191610f55565b820191906000526020600020905b815481529060010190602001808311610f3857829003601f168201915b505050505081565b6000600e60008381526020019081526020016000209050600c60003373ffffffffffffffffffffffffffffffffffffffff1673ffffffffffffffffffffffffffffffffffffffff16815260200190815260200160002060009054906101000a900460ff16611000576040517f08c379a0000000000000000000000000000000000000000000000000000000008152600401610ff790612c7e565b60405180910390fd5b80600a0160009054906101000a900460ff1615611052576040517f08c379a000000000000000000000000000000000000000000000000000000000815260040161104990612d1e565b60405180910390fd5b8060050160149054906101000a900460ff16156110a4576040517f08c379a000000000000000000000000000000000000000000000000000000000815260040161109b90612b7e565b60405180910390fd5b600081600b0160003373ffffffffffffffffffffffffffffffffffffffff1673ffffffffffffffffffffffffffffffffffffffff168152602001908152602001600020541415611129576040517f08c379a000000000000000000000000000000000000000000000000000000000815260040161112090612c3e565b60405180910390fd5b80600701600081548092919061113e9061311a565b9190505550600281600b0160003373ffffffffffffffffffffffffffffffffffffffff1673ffffffffffffffffffffffffffffffffffffffff168152602001908152602001600020819055507fd8c0741cd95f4e648a7d4557b5784a862cc1cedadd79801b595fbea90e3533f7338383600701546040516111c193929190612aea565b60405180910390a15050565b6000601460009054906101000a900473ffffffffffffffffffffffffffffffffffffffff1673ffffffffffffffffffffffffffffffffffffffff163373ffffffffffffffffffffffffffffffffffffffff161461125f576040517f08c379a000000000000000000000000000000000000000000000000000000000815260040161125690612c9e565b60405180910390fd5b600654905090565b600e602052806000526040600020600091509050806000015490806001018054611290906130b7565b80601f01602080910402602001604051908101604052809291908181526020018280546112bc906130b7565b80156113095780601f106112de57610100808354040283529160200191611309565b820191906000526020600020905b8154815290600101906020018083116112ec57829003601f168201915b50505050509080600201805461131e906130b7565b80601f016020809104026020016040519081016040528092919081815260200182805461134a906130b7565b80156113975780601f1061136c57610100808354040283529160200191611397565b820191906000526020600020905b81548152906001019060200180831161137a57829003601f168201915b5050505050908060030180546113ac906130b7565b80601f01602080910402602001604051908101604052809291908181526020018280546113d8906130b7565b80156114255780601f106113fa57610100808354040283529160200191611425565b820191906000526020600020905b81548152906001019060200180831161140857829003601f168201915b5050505050908060040154908060050160009054906101000a900473ffffffffffffffffffffffffffffffffffffffff16908060050160149054906101000a900460ff1690806006015490806007015490806008018054611485906130b7565b80601f01602080910402602001604051908101604052809291908181526020018280546114b1906130b7565b80156114fe5780601f106114d3576101008083540402835291602001916114fe565b820191906000526020600020905b8154815290600101906020018083116114e157829003601f168201915b505050505090806009018054611513906130b7565b80601f016020809104026020016040519081016040528092919081815260200182805461153f906130b7565b801561158c5780601f106115615761010080835404028352916020019161158c565b820191906000526020600020905b81548152906001019060200180831161156f57829003601f168201915b50505050509080600a0160009054906101000a900460ff1690508c565b60008060009054906101000a900473ffffffffffffffffffffffffffffffffffffffff1673ffffffffffffffffffffffffffffffffffffffff163373ffffffffffffffffffffffffffffffffffffffff161461163a576040517f08c379a000000000000000000000000000000000000000000000000000000000815260040161163190612bbe565b60405180910390fd5b600d600081548092919061164d9061311a565b9190505590506000600e600083815260200190815260200160002090508181600001819055508881600101908051906020019061168b929190612440565b50878160020190805190602001906116a4929190612440565b50868160040181905550848160050160006101000a81548173ffffffffffffffffffffffffffffffffffffffff021916908373ffffffffffffffffffffffffffffffffffffffff16021790555085816003019080519060200190611709929190612440565b5083816008019080519060200190611722929190612440565b508281600901908051906020019061173b929190612440565b5060008160050160146101000a81548160ff0219169083151502179055506000816006018190555060008160070181905550600081600a0160006101000a81548160ff0219169083151502179055507fa56ff5af4615f68b6691437c1c71588277670ee3aa965a731cc319e5ef0ac71c826040516117b99190612d3e565b60405180910390a150979650505050505050565b6000601660003373ffffffffffffffffffffffffffffffffffffffff1673ffffffffffffffffffffffffffffffffffffffff16815260200190815260200160002060009054906101000a900460ff1661185b576040517f08c379a000000000000000000000000000000000000000000000000000000000815260040161185290612cfe565b60405180910390fd5b60011515600b60019054906101000a900460ff1615151480611890575060011515600b60009054906101000a900460ff161515145b6118cf576040517f08c379a00000000000000000000000000000000000000000000000000000000081526004016118c690612b9e565b60405180910390fd5b601760003373ffffffffffffffffffffffffffffffffffffffff1673ffffffffffffffffffffffffffffffffffffffff1681526020019081526020016000205490506004548161191f9190612f8d565b90506005548161192f9190612f5c565b905090565b600d5481565b60008054906101000a900473ffffffffffffffffffffffffffffffffffffffff1673ffffffffffffffffffffffffffffffffffffffff163373ffffffffffffffffffffffffffffffffffffffff16146119c8576040517f08c379a00000000000000000000000000000000000000000000000000000000081526004016119bf90612bbe565b60405180910390fd5b600b60009054906101000a900460ff1615611a18576040517f08c379a0000000000000000000000000000000000000000000000000000000008152600401611a0f90612cbe565b60405180910390fd5b600b60019054906101000a900460ff1615611a68576040517f08c379a0000000000000000000000000000000000000000000000000000000008152600401611a5f90612bfe565b60405180910390fd5b6001600b60006101000a81548160ff0219169083151502179055507f739de6489fb6bd59f9572597d4a03fe6e7c81556c531378bda06e66475dc637d81604051611ab29190612b3c565b60405180910390a150565b60035481565b6000601460009054906101000a900473ffffffffffffffffffffffffffffffffffffffff1673ffffffffffffffffffffffffffffffffffffffff163373ffffffffffffffffffffffffffffffffffffffff1614611b55576040517f08c379a0000000000000000000000000000000000000000000000000000000008152600401611b4c90612c9e565b60405180910390fd5b81601460006101000a81548173ffffffffffffffffffffffffffffffffffffffff021916908373ffffffffffffffffffffffffffffffffffffffff160217905550601460009054906101000a900473ffffffffffffffffffffffffffffffffffffffff169050919050565b60078054611bcd906130b7565b80601f0160208091040260200160405190810160405280929190818152602001828054611bf9906130b7565b8015611c465780601f10611c1b57610100808354040283529160200191611c46565b820191906000526020600020905b815481529060010190602001808311611c2957829003601f168201915b505050505081565b601660003373ffffffffffffffffffffffffffffffffffffffff1673ffffffffffffffffffffffffffffffffffffffff16815260200190815260200160002060009054906101000a900460ff16611cda576040517f08c379a0000000000000000000000000000000000000000000000000000000008152600401611cd190612cfe565b60405180910390fd5b60011515600b60019054906101000a900460ff1615151480611d0f575060011515600b60009054906101000a900460ff161515145b611d4e576040517f08c379a0000000000000000000000000000000000000000000000000000000008152600401611d4590612b9e565b60405180910390fd5b6000601760003373ffffffffffffffffffffffffffffffffffffffff1673ffffffffffffffffffffffffffffffffffffffff1681526020019081526020016000205411611d9a57600080fd5b6000601760003373ffffffffffffffffffffffffffffffffffffffff1673ffffffffffffffffffffffffffffffffffffffff168152602001908152602001600020549050600060045482611dee9190612f8d565b905060055481611dfe9190612f5c565b90506000611e10826005612710612413565b90506000601760003373ffffffffffffffffffffffffffffffffffffffff1673ffffffffffffffffffffffffffffffffffffffff168152602001908152602001600020819055508160046000828254611e699190612fe7565b925050819055508060066000828254611e829190612f06565b925050819055508082611e959190612fe7565b915060003390508073ffffffffffffffffffffffffffffffffffffffff166108fc849081150290604051600060405180830381858888f19350505050158015611ee2573d6000803e3d6000fd5b5050505050565b601460009054906101000a900473ffffffffffffffffffffffffffffffffffffffff1673ffffffffffffffffffffffffffffffffffffffff163373ffffffffffffffffffffffffffffffffffffffff1614611f79576040517f08c379a0000000000000000000000000000000000000000000000000000000008152600401611f7090612c9e565b60405180910390fd5b600060065411611fbe576040517f08c379a0000000000000000000000000000000000000000000000000000000008152600401611fb590612c1e565b60405180910390fd5b600060065490506000600681905550601560009054906101000a900473ffffffffffffffffffffffffffffffffffffffff1673ffffffffffffffffffffffffffffffffffffffff166108fc829081150290604051600060405180830381858888f19350505050158015612035573d6000803e3d6000fd5b5050565b60045481565b6000600e60008381526020019081526020016000209050600c60003373ffffffffffffffffffffffffffffffffffffffff1673ffffffffffffffffffffffffffffffffffffffff16815260200190815260200160002060009054906101000a900460ff166120e2576040517f08c379a00000000000000000000000000000000000000000000000000000000081526004016120d990612c7e565b60405180910390fd5b80600a0160009054906101000a900460ff1615612134576040517f08c379a000000000000000000000000000000000000000000000000000000000815260040161212b90612d1e565b60405180910390fd5b8060050160149054906101000a900460ff1615612186576040517f08c379a000000000000000000000000000000000000000000000000000000000815260040161217d90612b7e565b60405180910390fd5b600081600b0160003373ffffffffffffffffffffffffffffffffffffffff1673ffffffffffffffffffffffffffffffffffffffff16815260200190815260200160002054141561220b576040517f08c379a000000000000000000000000000000000000000000000000000000000815260040161220290612c3e565b60405180910390fd5b8060060160008154809291906122209061311a565b9190505550600181600b0160003373ffffffffffffffffffffffffffffffffffffffff1673ffffffffffffffffffffffffffffffffffffffff168152602001908152602001600020819055507fc722aeb354db7ce1dfb5f05d6537417c8b86b0e254d60ad3835a1b155862a42a338383600601546040516122a393929190612aea565b60405180910390a15050565b60008054906101000a900473ffffffffffffffffffffffffffffffffffffffff1673ffffffffffffffffffffffffffffffffffffffff163373ffffffffffffffffffffffffffffffffffffffff161461233d576040517f08c379a000000000000000000000000000000000000000000000000000000000815260040161233490612bbe565b60405180910390fd5b600e6000838152602001908152602001600020600a0160009054906101000a900460ff16156123a1576040517f08c379a000000000000000000000000000000000000000000000000000000000815260040161239890612d1e565b60405180910390fd5b6000600e60008481526020019081526020016000209050600181600a0160006101000a81548160ff0219169083151502179055507fd27e3d9a9ae0fb728bfbdb457c9b09290886c043b331b9995192cc7f7129c9b18383604051612406929190612d59565b60405180910390a1505050565b60008084905083816124259190612f8d565b905082816124339190612f5c565b9050809150509392505050565b82805461244c906130b7565b90600052602060002090601f01602090048101928261246e57600085556124b5565b82601f1061248757805160ff19168380011785556124b5565b828001600101855582156124b5579182015b828111156124b4578251825591602001919060010190612499565b5b5090506124c291906124c6565b5090565b5b808211156124df5760008160009055506001016124c7565b5090565b60006124f66124f184612eb9565b612e94565b90508281526020810184848401111561251257612511613224565b5b61251d848285613075565b509392505050565b6000813590506125348161370e565b92915050565b60008135905061254981613725565b92915050565b60008135905061255e8161373c565b92915050565b600082601f8301126125795761257861321f565b5b81356125898482602086016124e3565b91505092915050565b6000813590506125a181613753565b92915050565b6000602082840312156125bd576125bc61322e565b5b60006125cb84828501612525565b91505092915050565b6000602082840312156125ea576125e961322e565b5b60006125f88482850161254f565b91505092915050565b6000602082840312156126175761261661322e565b5b600082013567ffffffffffffffff81111561263557612634613229565b5b61264184828501612564565b91505092915050565b600080600080600080600060e0888a0312156126695761266861322e565b5b600088013567ffffffffffffffff81111561268757612686613229565b5b6126938a828b01612564565b975050602088013567ffffffffffffffff8111156126b4576126b3613229565b5b6126c08a828b01612564565b96505060406126d18a828b01612592565b955050606088013567ffffffffffffffff8111156126f2576126f1613229565b5b6126fe8a828b01612564565b945050608061270f8a828b0161253a565b93505060a088013567ffffffffffffffff8111156127305761272f613229565b5b61273c8a828b01612564565b92505060c088013567ffffffffffffffff81111561275d5761275c613229565b5b6127698a828b01612564565b91505092959891949750929550565b60006020828403121561278e5761278d61322e565b5b600061279c84828501612592565b91505092915050565b600080604083850312156127bc576127bb61322e565b5b60006127ca85828601612592565b925050602083013567ffffffffffffffff8111156127eb576127ea613229565b5b6127f785828601612564565b9150509250929050565b61280a8161302d565b82525050565b6128198161301b565b82525050565b6128288161303f565b82525050565b600061283982612eea565b6128438185612ef5565b9350612853818560208601613084565b61285c81613233565b840191505092915050565b6000612874602783612ef5565b915061287f82613244565b604082019050919050565b6000612897602c83612ef5565b91506128a282613293565b604082019050919050565b60006128ba606183612ef5565b91506128c5826132e2565b608082019050919050565b60006128dd602383612ef5565b91506128e88261337d565b604082019050919050565b6000612900604583612ef5565b915061290b826133cc565b606082019050919050565b6000612923602583612ef5565b915061292e82613441565b604082019050919050565b6000612946601a83612ef5565b915061295182613490565b602082019050919050565b6000612969601683612ef5565b9150612974826134b9565b602082019050919050565b600061298c601983612ef5565b9150612997826134e2565b602082019050919050565b60006129af602f83612ef5565b91506129ba8261350b565b604082019050919050565b60006129d2603683612ef5565b91506129dd8261355a565b604082019050919050565b60006129f5602883612ef5565b9150612a00826135a9565b604082019050919050565b6000612a18603683612ef5565b9150612a23826135f8565b604082019050919050565b6000612a3b603583612ef5565b9150612a4682613647565b604082019050919050565b6000612a5e603883612ef5565b9150612a6982613696565b604082019050919050565b6000612a81601d83612ef5565b9150612a8c826136e5565b602082019050919050565b612aa08161306b565b82525050565b6000602082019050612abb6000830184612810565b92915050565b6000604082019050612ad66000830185612810565b612ae36020830184612a97565b9392505050565b6000606082019050612aff6000830186612810565b612b0c6020830185612a97565b612b196040830184612a97565b949350505050565b6000602082019050612b36600083018461281f565b92915050565b60006020820190508181036000830152612b56818461282e565b905092915050565b60006020820190508181036000830152612b7781612867565b9050919050565b60006020820190508181036000830152612b978161288a565b9050919050565b60006020820190508181036000830152612bb7816128ad565b9050919050565b60006020820190508181036000830152612bd7816128d0565b9050919050565b60006020820190508181036000830152612bf7816128f3565b9050919050565b60006020820190508181036000830152612c1781612916565b9050919050565b60006020820190508181036000830152612c3781612939565b9050919050565b60006020820190508181036000830152612c578161295c565b9050919050565b60006020820190508181036000830152612c778161297f565b9050919050565b60006020820190508181036000830152612c97816129a2565b9050919050565b60006020820190508181036000830152612cb7816129c5565b9050919050565b60006020820190508181036000830152612cd7816129e8565b9050919050565b60006020820190508181036000830152612cf781612a0b565b9050919050565b60006020820190508181036000830152612d1781612a2e565b9050919050565b60006020820190508181036000830152612d3781612a51565b9050919050565b6000602082019050612d536000830184612a97565b92915050565b6000604082019050612d6e6000830185612a97565b8181036020830152612d80818461282e565b90509392505050565b600061018082019050612d9f600083018f612a97565b8181036020830152612db1818e61282e565b90508181036040830152612dc5818d61282e565b90508181036060830152612dd9818c61282e565b9050612de8608083018b612a97565b612df560a083018a612801565b612e0260c083018961281f565b612e0f60e0830188612a97565b612e1d610100830187612a97565b818103610120830152612e30818661282e565b9050818103610140830152612e45818561282e565b9050612e5561016083018461281f565b9d9c50505050505050505050505050565b6000604082019050612e7b6000830184612a97565b8181036020830152612e8c81612a74565b905092915050565b6000612e9e612eaf565b9050612eaa82826130e9565b919050565b6000604051905090565b600067ffffffffffffffff821115612ed457612ed36131f0565b5b612edd82613233565b9050602081019050919050565b600081519050919050565b600082825260208201905092915050565b6000612f118261306b565b9150612f1c8361306b565b9250827fffffffffffffffffffffffffffffffffffffffffffffffffffffffffffffffff03821115612f5157612f50613163565b5b828201905092915050565b6000612f678261306b565b9150612f728361306b565b925082612f8257612f81613192565b5b828204905092915050565b6000612f988261306b565b9150612fa38361306b565b9250817fffffffffffffffffffffffffffffffffffffffffffffffffffffffffffffffff0483118215151615612fdc57612fdb613163565b5b828202905092915050565b6000612ff28261306b565b9150612ffd8361306b565b9250828210156130105761300f613163565b5b828203905092915050565b60006130268261304b565b9050919050565b60006130388261304b565b9050919050565b60008115159050919050565b600073ffffffffffffffffffffffffffffffffffffffff82169050919050565b6000819050919050565b82818337600083830152505050565b60005b838110156130a2578082015181840152602081019050613087565b838111156130b1576000848401525b50505050565b600060028204905060018216806130cf57607f821691505b602082108114156130e3576130e26131c1565b5b50919050565b6130f282613233565b810181811067ffffffffffffffff82111715613111576131106131f0565b5b80604052505050565b60006131258261306b565b91507fffffffffffffffffffffffffffffffffffffffffffffffffffffffffffffffff82141561315857613157613163565b5b600182019050919050565b7f4e487b7100000000000000000000000000000000000000000000000000000000600052601160045260246000fd5b7f4e487b7100000000000000000000000000000000000000000000000000000000600052601260045260246000fd5b7f4e487b7100000000000000000000000000000000000000000000000000000000600052602260045260246000fd5b7f4e487b7100000000000000000000000000000000000000000000000000000000600052604160045260246000fd5b600080fd5b600080fd5b600080fd5b600080fd5b6000601f19601f8301169050919050565b7f56656e646f72206973207061696420616c726561647920666f7220746869732060008201527f7265717565737400000000000000000000000000000000000000000000000000602082015250565b7f5265717565737420616c726561647920636f6d706c6574656420616e6420766560008201527f6e646f7220697320706169640000000000000000000000000000000000000000602082015250565b7f596f752063616e206f6e6c792074616b6520726566756e64206166746572207460008201527f68652070726f6a6563742069732066696e6973686564206f6e2063616e63656c60208201527f6c6564206279207468652063726561746f72206f66207468652070726f6a656360408201527f7400000000000000000000000000000000000000000000000000000000000000606082015250565b7f4f6e6c792043726561746f722063616e2063616c6c20746869732066756e637460008201527f696f6e0000000000000000000000000000000000000000000000000000000000602082015250565b7f526571756972657320617070726f76616c732066726f6d206174206c6561737460008201527f206d6f7265207468616e2068616c66206f6620746f74616c20636f6e7472696260208201527f75746f7273000000000000000000000000000000000000000000000000000000604082015250565b7f50726f6a65637420616c72656164792066696e6973686564207375636365737360008201527f66756c6c79000000000000000000000000000000000000000000000000000000602082015250565b7f5468657265206973206e6f206665657320617661696c61626c65000000000000600082015250565b7f596f752063616e20766f7465206f6e6c79206f6e636500000000000000000000600082015250565b7f52652d656e7472616e742063616c6c2064657465637465642100000000000000600082015250565b7f596f75206e65656420746f20626520616e20617070726f76657220746f20617060008201527f70726f7665206120726571756573740000000000000000000000000000000000602082015250565b7f4f6e6c7920646576656c6f70657273206f6620746869732070726f6a6563742060008201527f63616e2063616c6c20746869732066756e6374696f6e00000000000000000000602082015250565b7f50726f6a65637420616c72656164792063616e63656c6c65642062792074686560008201527f2043726561746f72000000000000000000000000000000000000000000000000602082015250565b7f42616c616e636520696e20706f6f6c206d757374206265206d6f72652074686160008201527f6e207468652072657175657374656420616d6f756e7400000000000000000000602082015250565b7f596f75206d7573742068616420636f6e747269627574656420746f207468652060008201527f70726f6a65637420746f2067657420726566756e640000000000000000000000602082015250565b7f5265717565737420616c72656164792063616e63656c6c65642062792074686560008201527f2063726561746f72206f6620746869732050726f6a6563740000000000000000602082015250565b7f50726f6a6563742046696e6973686564205375636365737366756c6c79000000600082015250565b6137178161301b565b811461372257600080fd5b50565b61372e8161302d565b811461373957600080fd5b50565b6137458161303f565b811461375057600080fd5b50565b61375c8161306b565b811461376757600080fd5b5056fea2646970667358221220df367d9a3a8b396a938b731883d8f971167a9ac2c081432fa8d7f03326b62c6764736f6c63430008070033",
  "immutableReferences": {},
  "source": "// SPDX-License-Identifier: GPL-3.0\r\npragma solidity >=0.4.16 < 0.9.0;\r\n\r\n// Importing OpenZeppelin's SafeMath Implementation\r\n// No longer needed after solidity 0.8.0\r\n// import \"./libraries/SafeMath.sol\";\r\n\r\ncontract Project {\r\n    // using SafeMath for uint256;\r\n    \r\n    event Contributed(address _from, uint _value);\r\n    event CreatedRequest(uint requestID);\r\n    event ApprovedReq(address _from, uint _requestID, uint _totalApprovals);\r\n    event DeniedReq(address _from, uint _requestID, uint _totalDenials);\r\n    event CancelledReq(uint _requestID, string _reason);\r\n    event FinalizedReq(uint _requestID);\r\n    event ProjectCancelled(string _reason);\r\n    event ProjectFinished(uint _value, string _msg);\r\n    \r\n    struct Request {\r\n        uint id;\r\n        string title;\r\n        string desc;\r\n        string milestoneId;\r\n        uint256 value;\r\n        address payable vendorAddress;\r\n        bool isComplete;\r\n        uint approvalsCount;\r\n        uint denialsCount;\r\n        string imgUrl;\r\n        string filesUrl;\r\n        bool cancelled;\r\n        mapping (address => uint) votes;    // 1 for positive vote, 2 for negative vote\r\n    }\r\n    \r\n    // creator is the Project Creator\r\n    address public creator;\r\n    \r\n    string public title;\r\n    string public description;\r\n    uint256 public minContribution;\r\n    uint256 public currentBalance = 0;\r\n    uint256 public totalPoolBalance = 0;\r\n    uint256 fees = 0;\r\n    string public imageUrl;\r\n    string public folderUrl;\r\n    uint approversCount = 0;\r\n    uint contributorsCount = 0;\r\n    bool cancelled = false;\r\n    bool finished = false;\r\n    \r\n    // only signed in accounts\r\n    mapping(address => bool) public approvers;\r\n    uint public numRequests;\r\n    mapping(uint => Request) public requests;\r\n    \r\n    // Location and Place details\r\n    bool isMap;\r\n    string postalAddress;\r\n    string lat;\r\n    string lng;\r\n    string placeName;\r\n    \r\n    address devs = 0x087F5052fBcD7C02DD45fb9907C57F1EccC2bE25;\r\n    address payable devAddress = payable(devs);\r\n    \r\n    // all contributors\r\n    mapping (address => bool) public contributors;\r\n    \r\n    // total contributions of all contributors\r\n    mapping (address => uint256) public contributions;\r\n    \r\n    modifier onlyCreator() {\r\n        require(msg.sender == creator, \"Only Creator can call this function\");\r\n        _;\r\n    }\r\n    \r\n    modifier onlyDevs() {\r\n        require(msg.sender == devs, \"Only developers of this project can call this function\");\r\n        _;\r\n    }\r\n    \r\n    constructor (\r\n        string memory _projectTitle, \r\n        string memory _projectDesc, \r\n        uint256 _minContributionAmount, \r\n        string memory _imgUrl, \r\n        string memory _folderUrl,\r\n        bool _isMap,\r\n        string memory _postalAddress,\r\n        string memory _latitude,\r\n        string memory _longitude,\r\n        string memory _placeName,\r\n        address _creator\r\n    ) {\r\n        creator = _creator;\r\n        title = _projectTitle;\r\n        description = _projectDesc;\r\n        imageUrl = _imgUrl;\r\n        folderUrl = _folderUrl;\r\n        minContribution = _minContributionAmount;\r\n        isMap = _isMap;\r\n        postalAddress = _postalAddress;\r\n        lat = _latitude;\r\n        lng = _longitude;\r\n        placeName = _placeName;\r\n    }\r\n\r\n    // To create requests\r\n    function createRequests(\r\n        string memory _reqTitle,\r\n        string memory _reqDesc, \r\n        uint256 _value, \r\n        string memory _milestoneId, \r\n        address payable _recipient, \r\n        string memory _imgUrl,\r\n        string memory _filesUrl\r\n    ) public onlyCreator returns (uint requestID) {\r\n        requestID = numRequests++;\r\n        Request storage req = requests[requestID];\r\n        req.id = requestID;\r\n        req.title = _reqTitle;\r\n        req.desc = _reqDesc;\r\n        req.value = _value;\r\n        req.vendorAddress = _recipient;\r\n        req.milestoneId = _milestoneId;\r\n        req.imgUrl = _imgUrl;\r\n        req.filesUrl = _filesUrl;\r\n        req.isComplete = false;\r\n        req.approvalsCount = 0;\r\n        req.denialsCount = 0;\r\n        req.cancelled = false;\r\n        \r\n        emit CreatedRequest(requestID);\r\n    }\r\n    \r\n    // calc 0.05% fee\r\n    function percentage(uint256 value, uint256 reqParts, uint256 totalParts) internal pure returns (uint256) {\r\n        uint256 total = value;\r\n        total *= (reqParts);\r\n        total /= (totalParts);\r\n        return total;\r\n    }\r\n    \r\n    // Sets the developers account address, and only be called by the developers\r\n    function setDevsNewAddress(address _devs) external onlyDevs returns (address) {\r\n        devs = _devs;\r\n        return devs;\r\n    }\r\n    \r\n    // Cancels the request, and can only be called by the creator of the project\r\n    function cancelRequest(uint _requestID, string memory _reason) external onlyCreator {\r\n        require(!requests[_requestID].cancelled, \"Request already cancelled by the creator of this Project\");\r\n        Request storage req = requests[_requestID];\r\n        req.cancelled = true;\r\n        \r\n        emit CancelledReq(_requestID, _reason);\r\n    }\r\n    \r\n    // Cancels the project, and can only be called by the creator of the project\r\n    function cancelProject(string memory _reason) external onlyCreator {\r\n        require(!cancelled, \"Project already cancelled by the Creator\");\r\n        require(!finished, \"Project already finished successfully\");\r\n        cancelled = true;\r\n        \r\n        emit ProjectCancelled(_reason);\r\n    }\r\n    \r\n    // After the project is finished this function is called, and can only be called by the creator of the project\r\n    function finishProject() external onlyCreator {\r\n        require(!cancelled, \"Project already cancelled by the Creator\");\r\n        require(!finished, \"Project already finished successfully\");\r\n        finished = true;\r\n        \r\n        emit ProjectFinished(totalPoolBalance - currentBalance, \"Project Finished Successfully\");\r\n    }\r\n    \r\n    // Check how much fees is accumulated till now, can only be called by the devs\r\n    function checkFees() external view onlyDevs returns (uint256) {\r\n        return fees;\r\n    }\r\n    \r\n    // Transfers the fee amount to developers address\r\n    function transferFees() external onlyDevs {\r\n        require(fees > 0, \"There is no fees available\");\r\n        uint256 feeAmount = fees;\r\n        fees = 0;\r\n        devAddress.transfer(feeAmount);\r\n    }\r\n    \r\n    // Contribute function\r\n    function contribute(bool _isSignedIn) public payable {\r\n        uint256 fee = percentage(msg.value, 5, 10000);\r\n        uint256 amount = msg.value;\r\n        amount -= fee;\r\n        currentBalance += (amount);\r\n        totalPoolBalance += (amount);\r\n        fees += (fee);\r\n        \r\n        if(msg.value >= minContribution) {\r\n            if(_isSignedIn == true) {\r\n                approvers[msg.sender] = true;\r\n                approversCount++;\r\n            }\r\n            contributions[msg.sender] += (amount);\r\n            contributorsCount++;\r\n            contributors[msg.sender] = true;\r\n        }\r\n        \r\n        emit Contributed(msg.sender, msg.value);\r\n    }\r\n    \r\n    // Approvers can call this function to approve a particular request\r\n    function approveRequest (uint requestID) public {\r\n        Request storage req = requests[requestID];\r\n        \r\n        require(approvers[msg.sender], \"You need to be an approver to approve a request\");\r\n        require(!req.cancelled, \"Request already cancelled by the creator of this Project\");\r\n        require(!req.isComplete, \"Request already completed and vendor is paid\");\r\n        require(!(req.votes[msg.sender] == 0), \"You can vote only once\");\r\n        \r\n        req.approvalsCount++;\r\n        req.votes[msg.sender] = 1;\r\n        \r\n        emit ApprovedReq(msg.sender, requestID, req.approvalsCount);\r\n    }\r\n    \r\n    // Deniers can call this function to approve a particular request\r\n    function denyRequest (uint requestID) public {\r\n        Request storage req = requests[requestID];\r\n        \r\n        require(approvers[msg.sender], \"You need to be an approver to approve a request\");\r\n        require(!req.cancelled, \"Request already cancelled by the creator of this Project\");\r\n        require(!req.isComplete, \"Request already completed and vendor is paid\");\r\n        require(!(req.votes[msg.sender] == 0), \"You can vote only once\");\r\n        \r\n        req.denialsCount++;\r\n        req.votes[msg.sender] = 2;\r\n        \r\n        emit DeniedReq(msg.sender, requestID, req.denialsCount);\r\n    }\r\n    \r\n    // After voting, creator will call this function to send the money to the vendor\r\n    bool locked = false;    // just to prevent re-entrant call from a contract\r\n    function finalizeRequest (uint _requestID) public onlyCreator {\r\n        Request storage req = requests[_requestID];\r\n        \r\n        require(!req.cancelled, \"Request already cancelled by the creator of this Project\");\r\n        require(!req.isComplete, \"Vendor is paid already for this request\");\r\n        require(currentBalance >= req.value, \"Balance in pool must be more than the requested amount\");\r\n        require(req.approvalsCount > approversCount/2, \"Requires approvals from at least more than half of total contributors\");\r\n        \r\n        require(!locked, \"Re-entrant call detected!\");\r\n        locked = true;\r\n        \r\n        uint256 fee = percentage(req.value, 5, 10000);\r\n        \r\n        uint256 amount = req.value;\r\n        amount -= (fee);\r\n        currentBalance -= (req.value);\r\n        req.value = 0;\r\n        fees += (fee);\r\n        req.isComplete = true;\r\n        \r\n        req.vendorAddress.transfer(amount);\r\n        \r\n        locked = false;\r\n        \r\n        emit FinalizedReq(_requestID);\r\n    }\r\n    \r\n    // To check amount of refund\r\n    function checkRefund() external view returns (uint256 refund) {\r\n        require(contributors[msg.sender], \"You must had contributed to the project to get refund\");\r\n        require(finished == true || cancelled == true, \"You can only take refund after the project is finished on cancelled by the creator of the project\");\r\n        \r\n        refund = contributions[msg.sender];\r\n        refund *= (currentBalance);\r\n        refund /= (totalPoolBalance);\r\n        return refund;\r\n    }\r\n    \r\n    // After the project is finished or cancelled by the creator, contributors can call this function to take back refund\r\n    function getRefund() public {\r\n        require(contributors[msg.sender], \"You must had contributed to the project to get refund\");\r\n        require(finished == true || cancelled == true, \"You can only take refund after the project is finished on cancelled by the creator of the project\");\r\n        require(contributions[msg.sender] > 0);\r\n        \r\n        uint256 amount = contributions[msg.sender];\r\n        uint256 refundAmount = (amount * currentBalance);\r\n        refundAmount /= (totalPoolBalance);\r\n        \r\n        uint256 fee = percentage(refundAmount, 5, 10000);\r\n        contributions[msg.sender] = 0;\r\n        currentBalance -= (refundAmount);\r\n        fees += (fee);\r\n        refundAmount -= (fee);\r\n        \r\n        address payable refundAddress = payable(msg.sender);\r\n        refundAddress.transfer(refundAmount);\r\n    }\r\n}",
  "sourcePath": "D:\\Node projects\\Blockchain Apps\\BizFund-Ethereum-Backend\\contracts\\Project.sol",
  "compiler": {
    "name": "solc",
    "version": "0.8.7+commit.e28d00a7.Emscripten.clang"
  },
  "schemaVersion": "3.4.3",
  "updatedAt": "2021-08-26T12:46:23.588Z",
  "devdoc": {
    "kind": "dev",
    "methods": {},
    "version": 1
  },
  "userdoc": {
    "kind": "user",
    "methods": {},
    "version": 1
  }
}