{
  "contractName": "Project",
  "abi": [
    {
      "inputs": [
        {
          "internalType": "string",
          "name": "_projectTitle",
          "type": "string"
        },
        {
          "internalType": "string",
          "name": "_projectDesc",
          "type": "string"
        },
        {
          "internalType": "uint256",
          "name": "_minContributionAmount",
          "type": "uint256"
        },
        {
          "internalType": "string",
          "name": "_imgUrl",
          "type": "string"
        },
        {
          "internalType": "string",
          "name": "_folderUrl",
          "type": "string"
        },
        {
          "internalType": "bool",
          "name": "_isMap",
          "type": "bool"
        },
        {
          "internalType": "string",
          "name": "_postalAddress",
          "type": "string"
        },
        {
          "internalType": "string",
          "name": "_latitude",
          "type": "string"
        },
        {
          "internalType": "string",
          "name": "_longitude",
          "type": "string"
        },
        {
          "internalType": "string",
          "name": "_placeName",
          "type": "string"
        },
        {
          "internalType": "address",
          "name": "_creator",
          "type": "address"
        }
      ],
      "stateMutability": "nonpayable",
      "type": "constructor"
    },
    {
      "anonymous": false,
      "inputs": [
        {
          "indexed": false,
          "internalType": "address",
          "name": "_from",
          "type": "address"
        },
        {
          "indexed": false,
          "internalType": "uint256",
          "name": "_requestID",
          "type": "uint256"
        },
        {
          "indexed": false,
          "internalType": "uint256",
          "name": "_totalApprovals",
          "type": "uint256"
        }
      ],
      "name": "ApprovedReq",
      "type": "event"
    },
    {
      "anonymous": false,
      "inputs": [
        {
          "indexed": false,
          "internalType": "uint256",
          "name": "_requestID",
          "type": "uint256"
        },
        {
          "indexed": false,
          "internalType": "string",
          "name": "_reason",
          "type": "string"
        }
      ],
      "name": "CancelledReq",
      "type": "event"
    },
    {
      "anonymous": false,
      "inputs": [
        {
          "indexed": false,
          "internalType": "address",
          "name": "_from",
          "type": "address"
        },
        {
          "indexed": false,
          "internalType": "uint256",
          "name": "_value",
          "type": "uint256"
        }
      ],
      "name": "Contributed",
      "type": "event"
    },
    {
      "anonymous": false,
      "inputs": [
        {
          "indexed": false,
          "internalType": "uint256",
          "name": "requestID",
          "type": "uint256"
        }
      ],
      "name": "CreatedRequest",
      "type": "event"
    },
    {
      "anonymous": false,
      "inputs": [
        {
          "indexed": false,
          "internalType": "address",
          "name": "_from",
          "type": "address"
        },
        {
          "indexed": false,
          "internalType": "uint256",
          "name": "_requestID",
          "type": "uint256"
        },
        {
          "indexed": false,
          "internalType": "uint256",
          "name": "_totalDenials",
          "type": "uint256"
        }
      ],
      "name": "DeniedReq",
      "type": "event"
    },
    {
      "anonymous": false,
      "inputs": [
        {
          "indexed": false,
          "internalType": "uint256",
          "name": "_requestID",
          "type": "uint256"
        }
      ],
      "name": "FinalizedReq",
      "type": "event"
    },
    {
      "anonymous": false,
      "inputs": [
        {
          "indexed": false,
          "internalType": "string",
          "name": "_reason",
          "type": "string"
        }
      ],
      "name": "ProjectCancelled",
      "type": "event"
    },
    {
      "anonymous": false,
      "inputs": [
        {
          "indexed": false,
          "internalType": "uint256",
          "name": "_value",
          "type": "uint256"
        },
        {
          "indexed": false,
          "internalType": "string",
          "name": "_msg",
          "type": "string"
        }
      ],
      "name": "ProjectFinished",
      "type": "event"
    },
    {
      "inputs": [
        {
          "internalType": "address",
          "name": "",
          "type": "address"
        }
      ],
      "name": "approvers",
      "outputs": [
        {
          "internalType": "bool",
          "name": "",
          "type": "bool"
        }
      ],
      "stateMutability": "view",
      "type": "function"
    },
    {
      "inputs": [],
      "name": "approversCount",
      "outputs": [
        {
          "internalType": "uint256",
          "name": "",
          "type": "uint256"
        }
      ],
      "stateMutability": "view",
      "type": "function"
    },
    {
      "inputs": [],
      "name": "cancelled",
      "outputs": [
        {
          "internalType": "bool",
          "name": "",
          "type": "bool"
        }
      ],
      "stateMutability": "view",
      "type": "function"
    },
    {
      "inputs": [
        {
          "internalType": "address",
          "name": "",
          "type": "address"
        }
      ],
      "name": "contributions",
      "outputs": [
        {
          "internalType": "uint256",
          "name": "",
          "type": "uint256"
        }
      ],
      "stateMutability": "view",
      "type": "function"
    },
    {
      "inputs": [
        {
          "internalType": "address",
          "name": "",
          "type": "address"
        }
      ],
      "name": "contributors",
      "outputs": [
        {
          "internalType": "bool",
          "name": "",
          "type": "bool"
        }
      ],
      "stateMutability": "view",
      "type": "function"
    },
    {
      "inputs": [],
      "name": "contributorsCount",
      "outputs": [
        {
          "internalType": "uint256",
          "name": "",
          "type": "uint256"
        }
      ],
      "stateMutability": "view",
      "type": "function"
    },
    {
      "inputs": [],
      "name": "creator",
      "outputs": [
        {
          "internalType": "address",
          "name": "",
          "type": "address"
        }
      ],
      "stateMutability": "view",
      "type": "function"
    },
    {
      "inputs": [],
      "name": "currentBalance",
      "outputs": [
        {
          "internalType": "uint256",
          "name": "",
          "type": "uint256"
        }
      ],
      "stateMutability": "view",
      "type": "function"
    },
    {
      "inputs": [],
      "name": "devs",
      "outputs": [
        {
          "internalType": "address",
          "name": "",
          "type": "address"
        }
      ],
      "stateMutability": "view",
      "type": "function"
    },
    {
      "inputs": [],
      "name": "finished",
      "outputs": [
        {
          "internalType": "bool",
          "name": "",
          "type": "bool"
        }
      ],
      "stateMutability": "view",
      "type": "function"
    },
    {
      "inputs": [],
      "name": "numRequests",
      "outputs": [
        {
          "internalType": "uint256",
          "name": "",
          "type": "uint256"
        }
      ],
      "stateMutability": "view",
      "type": "function"
    },
    {
      "inputs": [
        {
          "internalType": "uint256",
          "name": "",
          "type": "uint256"
        }
      ],
      "name": "requests",
      "outputs": [
        {
          "internalType": "uint256",
          "name": "id",
          "type": "uint256"
        },
        {
          "internalType": "string",
          "name": "title",
          "type": "string"
        },
        {
          "internalType": "string",
          "name": "desc",
          "type": "string"
        },
        {
          "internalType": "string",
          "name": "milestoneId",
          "type": "string"
        },
        {
          "internalType": "uint256",
          "name": "value",
          "type": "uint256"
        },
        {
          "internalType": "address payable",
          "name": "vendorAddress",
          "type": "address"
        },
        {
          "internalType": "bool",
          "name": "isComplete",
          "type": "bool"
        },
        {
          "internalType": "uint256",
          "name": "approvalsCount",
          "type": "uint256"
        },
        {
          "internalType": "uint256",
          "name": "denialsCount",
          "type": "uint256"
        },
        {
          "internalType": "string",
          "name": "imgUrl",
          "type": "string"
        },
        {
          "internalType": "string",
          "name": "filesUrl",
          "type": "string"
        },
        {
          "internalType": "bool",
          "name": "cancelled",
          "type": "bool"
        }
      ],
      "stateMutability": "view",
      "type": "function"
    },
    {
      "inputs": [],
      "name": "totalPoolBalance",
      "outputs": [
        {
          "internalType": "uint256",
          "name": "",
          "type": "uint256"
        }
      ],
      "stateMutability": "view",
      "type": "function"
    },
    {
      "inputs": [],
      "name": "getLiveDetails",
      "outputs": [
        {
          "internalType": "uint256",
          "name": "",
          "type": "uint256"
        },
        {
          "internalType": "uint256",
          "name": "",
          "type": "uint256"
        },
        {
          "internalType": "uint256",
          "name": "",
          "type": "uint256"
        },
        {
          "internalType": "uint256",
          "name": "",
          "type": "uint256"
        },
        {
          "internalType": "bool",
          "name": "",
          "type": "bool"
        },
        {
          "internalType": "bool",
          "name": "",
          "type": "bool"
        }
      ],
      "stateMutability": "view",
      "type": "function"
    },
    {
      "inputs": [],
      "name": "getBasicDetails",
      "outputs": [
        {
          "components": [
            {
              "internalType": "address",
              "name": "owner",
              "type": "address"
            },
            {
              "internalType": "string",
              "name": "title",
              "type": "string"
            },
            {
              "internalType": "string",
              "name": "description",
              "type": "string"
            },
            {
              "internalType": "string",
              "name": "imageUrl",
              "type": "string"
            },
            {
              "internalType": "string",
              "name": "folderUrl",
              "type": "string"
            },
            {
              "internalType": "uint256",
              "name": "minContribution",
              "type": "uint256"
            },
            {
              "internalType": "bool",
              "name": "isMap",
              "type": "bool"
            },
            {
              "internalType": "string",
              "name": "postalAddress",
              "type": "string"
            },
            {
              "internalType": "string",
              "name": "lat",
              "type": "string"
            },
            {
              "internalType": "string",
              "name": "lng",
              "type": "string"
            },
            {
              "internalType": "string",
              "name": "placeName",
              "type": "string"
            }
          ],
          "internalType": "struct Project.BasicDetails",
          "name": "",
          "type": "tuple"
        }
      ],
      "stateMutability": "view",
      "type": "function"
    },
    {
      "inputs": [
        {
          "internalType": "uint256",
          "name": "_requestID",
          "type": "uint256"
        }
      ],
      "name": "getRequestByIndex",
      "outputs": [
        {
          "components": [
            {
              "internalType": "uint256",
              "name": "id",
              "type": "uint256"
            },
            {
              "internalType": "string",
              "name": "title",
              "type": "string"
            },
            {
              "internalType": "string",
              "name": "desc",
              "type": "string"
            },
            {
              "internalType": "string",
              "name": "milestoneId",
              "type": "string"
            },
            {
              "internalType": "uint256",
              "name": "value",
              "type": "uint256"
            },
            {
              "internalType": "address payable",
              "name": "vendorAddress",
              "type": "address"
            },
            {
              "internalType": "bool",
              "name": "isComplete",
              "type": "bool"
            },
            {
              "internalType": "uint256",
              "name": "approvalsCount",
              "type": "uint256"
            },
            {
              "internalType": "uint256",
              "name": "denialsCount",
              "type": "uint256"
            },
            {
              "internalType": "string",
              "name": "imgUrl",
              "type": "string"
            },
            {
              "internalType": "string",
              "name": "filesUrl",
              "type": "string"
            },
            {
              "internalType": "bool",
              "name": "cancelled",
              "type": "bool"
            }
          ],
          "internalType": "struct Project.RequestDetails",
          "name": "",
          "type": "tuple"
        }
      ],
      "stateMutability": "view",
      "type": "function"
    },
    {
      "inputs": [
        {
          "internalType": "address",
          "name": "_user",
          "type": "address"
        },
        {
          "internalType": "uint256",
          "name": "_requestID",
          "type": "uint256"
        }
      ],
      "name": "isVoted",
      "outputs": [
        {
          "internalType": "bool",
          "name": "",
          "type": "bool"
        }
      ],
      "stateMutability": "view",
      "type": "function"
    },
    {
      "inputs": [
        {
          "internalType": "uint256",
          "name": "_requestID",
          "type": "uint256"
        }
      ],
      "name": "getVoteCounts",
      "outputs": [
        {
          "internalType": "uint256",
          "name": "",
          "type": "uint256"
        },
        {
          "internalType": "uint256",
          "name": "",
          "type": "uint256"
        },
        {
          "internalType": "uint256",
          "name": "",
          "type": "uint256"
        }
      ],
      "stateMutability": "view",
      "type": "function"
    },
    {
      "inputs": [
        {
          "internalType": "string",
          "name": "_reqTitle",
          "type": "string"
        },
        {
          "internalType": "string",
          "name": "_reqDesc",
          "type": "string"
        },
        {
          "internalType": "uint256",
          "name": "_value",
          "type": "uint256"
        },
        {
          "internalType": "string",
          "name": "_milestoneId",
          "type": "string"
        },
        {
          "internalType": "address payable",
          "name": "_recipient",
          "type": "address"
        },
        {
          "internalType": "string",
          "name": "_imgUrl",
          "type": "string"
        },
        {
          "internalType": "string",
          "name": "_filesUrl",
          "type": "string"
        }
      ],
      "name": "createRequests",
      "outputs": [
        {
          "internalType": "uint256",
          "name": "requestID",
          "type": "uint256"
        }
      ],
      "stateMutability": "nonpayable",
      "type": "function"
    },
    {
      "inputs": [
        {
          "internalType": "address",
          "name": "_devs",
          "type": "address"
        }
      ],
      "name": "setDevsNewAddress",
      "outputs": [
        {
          "internalType": "address",
          "name": "",
          "type": "address"
        }
      ],
      "stateMutability": "nonpayable",
      "type": "function"
    },
    {
      "inputs": [
        {
          "internalType": "uint256",
          "name": "_requestID",
          "type": "uint256"
        },
        {
          "internalType": "string",
          "name": "_reason",
          "type": "string"
        }
      ],
      "name": "cancelRequest",
      "outputs": [],
      "stateMutability": "nonpayable",
      "type": "function"
    },
    {
      "inputs": [
        {
          "internalType": "string",
          "name": "_reason",
          "type": "string"
        }
      ],
      "name": "cancelProject",
      "outputs": [],
      "stateMutability": "nonpayable",
      "type": "function"
    },
    {
      "inputs": [],
      "name": "finishProject",
      "outputs": [],
      "stateMutability": "nonpayable",
      "type": "function"
    },
    {
      "inputs": [],
      "name": "checkFees",
      "outputs": [
        {
          "internalType": "uint256",
          "name": "",
          "type": "uint256"
        }
      ],
      "stateMutability": "view",
      "type": "function"
    },
    {
      "inputs": [],
      "name": "transferFees",
      "outputs": [],
      "stateMutability": "nonpayable",
      "type": "function"
    },
    {
      "inputs": [
        {
          "internalType": "bool",
          "name": "_isSignedIn",
          "type": "bool"
        }
      ],
      "name": "contribute",
      "outputs": [],
      "stateMutability": "payable",
      "type": "function"
    },
    {
      "inputs": [
        {
          "internalType": "uint256",
          "name": "requestID",
          "type": "uint256"
        }
      ],
      "name": "approveRequest",
      "outputs": [],
      "stateMutability": "nonpayable",
      "type": "function"
    },
    {
      "inputs": [
        {
          "internalType": "uint256",
          "name": "requestID",
          "type": "uint256"
        }
      ],
      "name": "denyRequest",
      "outputs": [],
      "stateMutability": "nonpayable",
      "type": "function"
    },
    {
      "inputs": [
        {
          "internalType": "uint256",
          "name": "_requestID",
          "type": "uint256"
        }
      ],
      "name": "finalizeRequest",
      "outputs": [],
      "stateMutability": "nonpayable",
      "type": "function"
    },
    {
      "inputs": [],
      "name": "checkRefund",
      "outputs": [
        {
          "internalType": "uint256",
          "name": "refund",
          "type": "uint256"
        }
      ],
      "stateMutability": "view",
      "type": "function"
    },
    {
      "inputs": [],
      "name": "getRefund",
      "outputs": [],
      "stateMutability": "nonpayable",
      "type": "function"
    }
  ],
  "bytecode": "0x60806040526000600c556000600d556000600e556000600f5560006010556000601160006101000a81548160ff0219169083151502179055506000601160016101000a81548160ff02191690831515021790555073087f5052fbcd7c02dd45fb9907c57f1eccc2be25601560006101000a81548173ffffffffffffffffffffffffffffffffffffffff021916908373ffffffffffffffffffffffffffffffffffffffff160217905550601560009054906101000a900473ffffffffffffffffffffffffffffffffffffffff16601660006101000a81548173ffffffffffffffffffffffffffffffffffffffff021916908373ffffffffffffffffffffffffffffffffffffffff1602179055506000601960006101000a81548160ff0219169083151502179055503480156200013357600080fd5b5060405162004f7538038062004f7583398181016040528101906200015991906200048a565b80600b60006101000a81548173ffffffffffffffffffffffffffffffffffffffff021916908373ffffffffffffffffffffffffffffffffffffffff160217905550600b60009054906101000a900473ffffffffffffffffffffffffffffffffffffffff166000800160006101000a81548173ffffffffffffffffffffffffffffffffffffffff021916908373ffffffffffffffffffffffffffffffffffffffff1602179055508a600060010190805190602001906200021a92919062000317565b5089600060020190805190602001906200023692919062000317565b5087600060030190805190602001906200025292919062000317565b5086600060040190805190602001906200026e92919062000317565b508860006005018190555085600060060160006101000a81548160ff0219169083151502179055508460006007019080519060200190620002b192919062000317565b508360006008019080519060200190620002cd92919062000317565b508260006009019080519060200190620002e992919062000317565b50816000600a0190805190602001906200030592919062000317565b505050505050505050505050620008ab565b82805462000325906200076e565b90600052602060002090601f01602090048101928262000349576000855562000395565b82601f106200036457805160ff191683800117855562000395565b8280016001018555821562000395579182015b828111156200039457825182559160200191906001019062000377565b5b509050620003a49190620003a8565b5090565b5b80821115620003c3576000816000905550600101620003a9565b5090565b6000620003de620003d884620006b8565b6200068f565b905082815260208101848484011115620003fd57620003fc6200083d565b5b6200040a84828562000738565b509392505050565b60008151905062000423816200085d565b92915050565b6000815190506200043a8162000877565b92915050565b600082601f83011262000458576200045762000838565b5b81516200046a848260208601620003c7565b91505092915050565b600081519050620004848162000891565b92915050565b60008060008060008060008060008060006101608c8e031215620004b357620004b262000847565b5b60008c015167ffffffffffffffff811115620004d457620004d362000842565b5b620004e28e828f0162000440565b9b505060208c015167ffffffffffffffff81111562000506576200050562000842565b5b620005148e828f0162000440565b9a50506040620005278e828f0162000473565b99505060608c015167ffffffffffffffff8111156200054b576200054a62000842565b5b620005598e828f0162000440565b98505060808c015167ffffffffffffffff8111156200057d576200057c62000842565b5b6200058b8e828f0162000440565b97505060a06200059e8e828f0162000429565b96505060c08c015167ffffffffffffffff811115620005c257620005c162000842565b5b620005d08e828f0162000440565b95505060e08c015167ffffffffffffffff811115620005f457620005f362000842565b5b620006028e828f0162000440565b9450506101008c015167ffffffffffffffff81111562000627576200062662000842565b5b620006358e828f0162000440565b9350506101208c015167ffffffffffffffff8111156200065a576200065962000842565b5b620006688e828f0162000440565b9250506101406200067c8e828f0162000412565b9150509295989b509295989b9093969950565b60006200069b620006ae565b9050620006a98282620007a4565b919050565b6000604051905090565b600067ffffffffffffffff821115620006d657620006d562000809565b5b620006e1826200084c565b9050602081019050919050565b6000620006fb826200070e565b9050919050565b60008115159050919050565b600073ffffffffffffffffffffffffffffffffffffffff82169050919050565b6000819050919050565b60005b83811015620007585780820151818401526020810190506200073b565b8381111562000768576000848401525b50505050565b600060028204905060018216806200078757607f821691505b602082108114156200079e576200079d620007da565b5b50919050565b620007af826200084c565b810181811067ffffffffffffffff82111715620007d157620007d062000809565b5b80604052505050565b7f4e487b7100000000000000000000000000000000000000000000000000000000600052602260045260246000fd5b7f4e487b7100000000000000000000000000000000000000000000000000000000600052604160045260246000fd5b600080fd5b600080fd5b600080fd5b600080fd5b6000601f19601f8301169050919050565b6200086881620006ee565b81146200087457600080fd5b50565b620008828162000702565b81146200088e57600080fd5b50565b6200089c816200072e565b8114620008a857600080fd5b50565b6146ba80620008bb6000396000f3fe6080604052600436106101d85760003560e01c806382fde09311610102578063a394c3a611610095578063c2fbe7bc11610064578063c2fbe7bc146106dd578063ce845d1d146106f4578063d7d1bbdb1461071f578063eb9db01f14610748576101d8565b8063a394c3a614610635578063ab4e6c6d1461065e578063b2d5ae441461069b578063bef4876b146106b2576101d8565b806394c246d5116100d157806394c246d5146105895780639a82a09a146105b45780639a96f829146105df5780639fb42b1f1461060a576101d8565b806382fde093146104a55780638a241f4c146104d05780638ee36f051461050f5780638ff0d0541461054c576101d8565b80635026d63e1161017a5780637569b3d7116101495780637569b3d7146103de57806379f96c57146104095780637be441d11461043257806381d12c581461045d576101d8565b80635026d63e146103345780635beac7a71461035f57806369788c8e1461038a5780636d052b37146103a1576101d8565b8063139ff11d116101b6578063139ff11d1461026e5780631f6d49421461029e57806340656963146102db57806342e94c90146102f7576101d8565b806302d05d3f146101dd57806303441006146102085780630a14439114610231575b600080fd5b3480156101e957600080fd5b506101f2610771565b6040516101ff919061388a565b60405180910390f35b34801561021457600080fd5b5061022f600480360381019061022a9190613284565b610797565b005b34801561023d57600080fd5b5061025860048036038101906102539190613073565b610b37565b6040516102659190613905565b60405180910390f35b34801561027a57600080fd5b50610283610b57565b60405161029596959493929190613d13565b60405180910390f35b3480156102aa57600080fd5b506102c560048036038101906102c09190613073565b610bc4565b6040516102d29190613905565b60405180910390f35b6102f560048036038101906102f091906130e0565b610be4565b005b34801561030357600080fd5b5061031e60048036038101906103199190613073565b610de3565b60405161032b9190613b86565b60405180910390f35b34801561034057600080fd5b50610349610dfb565b6040516103569190613b86565b60405180910390f35b34801561036b57600080fd5b50610374610e01565b6040516103819190613b42565b60405180910390f35b34801561039657600080fd5b5061039f611327565b005b3480156103ad57600080fd5b506103c860048036038101906103c39190613284565b6114ba565b6040516103d59190613b64565b60405180910390f35b3480156103ea57600080fd5b506103f36118ae565b6040516104009190613b86565b60405180910390f35b34801561041557600080fd5b50610430600480360381019061042b9190613284565b6118b4565b005b34801561043e57600080fd5b50610447611ae9565b6040516104549190613b86565b60405180910390f35b34801561046957600080fd5b50610484600480360381019061047f9190613284565b611b83565b60405161049c9c9b9a99989796959493929190613bd1565b60405180910390f35b3480156104b157600080fd5b506104ba611ec5565b6040516104c79190613b86565b60405180910390f35b3480156104dc57600080fd5b506104f760048036038101906104f29190613284565b611ecb565b60405161050693929190613cdc565b60405180910390f35b34801561051b57600080fd5b50610536600480360381019061053191906130a0565b611f01565b6040516105439190613905565b60405180910390f35b34801561055857600080fd5b50610573600480360381019061056e9190613156565b612006565b6040516105809190613b86565b60405180910390f35b34801561059557600080fd5b5061059e61222b565b6040516105ab9190613b86565b60405180910390f35b3480156105c057600080fd5b506105c9612392565b6040516105d69190613905565b60405180910390f35b3480156105eb57600080fd5b506105f46123a5565b604051610601919061388a565b60405180910390f35b34801561061657600080fd5b5061061f6123cb565b60405161062c9190613b86565b60405180910390f35b34801561064157600080fd5b5061065c6004803603810190610657919061310d565b6123d1565b005b34801561066a57600080fd5b5061068560048036038101906106809190613073565b612556565b604051610692919061388a565b60405180910390f35b3480156106a757600080fd5b506106b0612653565b005b3480156106be57600080fd5b506106c76128ee565b6040516106d49190613905565b60405180910390f35b3480156106e957600080fd5b506106f2612901565b005b34801561070057600080fd5b50610709612a51565b6040516107169190613b86565b60405180910390f35b34801561072b57600080fd5b5061074660048036038101906107419190613284565b612a57565b005b34801561075457600080fd5b5061076f600480360381019061076a91906132b1565b612c8c565b005b600b60009054906101000a900473ffffffffffffffffffffffffffffffffffffffff1681565b600b60009054906101000a900473ffffffffffffffffffffffffffffffffffffffff1673ffffffffffffffffffffffffffffffffffffffff163373ffffffffffffffffffffffffffffffffffffffff1614610827576040517f08c379a000000000000000000000000000000000000000000000000000000000815260040161081e906139a2565b60405180910390fd5b600060146000838152602001908152602001600020905080600a0160009054906101000a900460ff1615610890576040517f08c379a000000000000000000000000000000000000000000000000000000000815260040161088790613b02565b60405180910390fd5b8060050160149054906101000a900460ff16156108e2576040517f08c379a00000000000000000000000000000000000000000000000000000000081526004016108d990613942565b60405180910390fd5b8060040154600c54101561092b576040517f08c379a000000000000000000000000000000000000000000000000000000000815260040161092290613ac2565b60405180910390fd5b6002600f5461093a9190613e4d565b81600601541161097f576040517f08c379a0000000000000000000000000000000000000000000000000000000008152600401610976906139c2565b60405180910390fd5b601960009054906101000a900460ff16156109cf576040517f08c379a00000000000000000000000000000000000000000000000000000000081526004016109c690613a42565b60405180910390fd5b6001601960006101000a81548160ff02191690831515021790555060006109fe82600401546005612710612df2565b90506000826004015490508181610a159190613ed8565b90508260040154600c6000828254610a2d9190613ed8565b925050819055506000836004018190555081600e6000828254610a509190613df7565b9250508190555060018360050160146101000a81548160ff0219169083151502179055508260050160009054906101000a900473ffffffffffffffffffffffffffffffffffffffff1673ffffffffffffffffffffffffffffffffffffffff166108fc829081150290604051600060405180830381858888f19350505050158015610ade573d6000803e3d6000fd5b506000601960006101000a81548160ff0219169083151502179055507fbd4b6d8fe937b68fec69985b01c1e12a7ec4af495b0e3f1cbe6c7faf803da00c84604051610b299190613b86565b60405180910390a150505050565b60126020528060005260406000206000915054906101000a900460ff1681565b6000806000806000806000600c5490506000600d5490506000600f549050600060105490506000601160009054906101000a900460ff1690506000601160019054906101000a900460ff1690508585858585859b509b509b509b509b509b50505050505050909192939495565b60176020528060005260406000206000915054906101000a900460ff1681565b6000610bf4346005612710612df2565b905060003490508181610c079190613ed8565b905080600c6000828254610c1b9190613df7565b9250508190555080600d6000828254610c349190613df7565b9250508190555081600e6000828254610c4d9190613df7565b925050819055506000600501543410610da557600115158315151415610cde576001601260003373ffffffffffffffffffffffffffffffffffffffff1673ffffffffffffffffffffffffffffffffffffffff16815260200190815260200160002060006101000a81548160ff021916908315150217905550600f6000815480929190610cd89061400b565b91905055505b80601860003373ffffffffffffffffffffffffffffffffffffffff1673ffffffffffffffffffffffffffffffffffffffff1681526020019081526020016000206000828254610d2d9190613df7565b9250508190555060106000815480929190610d479061400b565b91905055506001601760003373ffffffffffffffffffffffffffffffffffffffff1673ffffffffffffffffffffffffffffffffffffffff16815260200190815260200160002060006101000a81548160ff0219169083151502179055505b7f62722348256371b5147820d6cad90c40fd2da1ccee18c3ed52c0bca5a61dbbab3334604051610dd69291906138a5565b60405180910390a1505050565b60186020528060005260406000206000915090505481565b600d5481565b610e09612e1f565b6000604051806101600160405290816000820160009054906101000a900473ffffffffffffffffffffffffffffffffffffffff1673ffffffffffffffffffffffffffffffffffffffff1673ffffffffffffffffffffffffffffffffffffffff168152602001600182018054610e7d90613fa8565b80601f0160208091040260200160405190810160405280929190818152602001828054610ea990613fa8565b8015610ef65780601f10610ecb57610100808354040283529160200191610ef6565b820191906000526020600020905b815481529060010190602001808311610ed957829003601f168201915b50505050508152602001600282018054610f0f90613fa8565b80601f0160208091040260200160405190810160405280929190818152602001828054610f3b90613fa8565b8015610f885780601f10610f5d57610100808354040283529160200191610f88565b820191906000526020600020905b815481529060010190602001808311610f6b57829003601f168201915b50505050508152602001600382018054610fa190613fa8565b80601f0160208091040260200160405190810160405280929190818152602001828054610fcd90613fa8565b801561101a5780601f10610fef5761010080835404028352916020019161101a565b820191906000526020600020905b815481529060010190602001808311610ffd57829003601f168201915b5050505050815260200160048201805461103390613fa8565b80601f016020809104026020016040519081016040528092919081815260200182805461105f90613fa8565b80156110ac5780601f10611081576101008083540402835291602001916110ac565b820191906000526020600020905b81548152906001019060200180831161108f57829003601f168201915b50505050508152602001600582015481526020016006820160009054906101000a900460ff161515151581526020016007820180546110ea90613fa8565b80601f016020809104026020016040519081016040528092919081815260200182805461111690613fa8565b80156111635780601f1061113857610100808354040283529160200191611163565b820191906000526020600020905b81548152906001019060200180831161114657829003601f168201915b5050505050815260200160088201805461117c90613fa8565b80601f01602080910402602001604051908101604052809291908181526020018280546111a890613fa8565b80156111f55780601f106111ca576101008083540402835291602001916111f5565b820191906000526020600020905b8154815290600101906020018083116111d857829003601f168201915b5050505050815260200160098201805461120e90613fa8565b80601f016020809104026020016040519081016040528092919081815260200182805461123a90613fa8565b80156112875780601f1061125c57610100808354040283529160200191611287565b820191906000526020600020905b81548152906001019060200180831161126a57829003601f168201915b50505050508152602001600a820180546112a090613fa8565b80601f01602080910402602001604051908101604052809291908181526020018280546112cc90613fa8565b80156113195780601f106112ee57610100808354040283529160200191611319565b820191906000526020600020905b8154815290600101906020018083116112fc57829003601f168201915b505050505081525050905090565b600b60009054906101000a900473ffffffffffffffffffffffffffffffffffffffff1673ffffffffffffffffffffffffffffffffffffffff163373ffffffffffffffffffffffffffffffffffffffff16146113b7576040517f08c379a00000000000000000000000000000000000000000000000000000000081526004016113ae906139a2565b60405180910390fd5b601160009054906101000a900460ff1615611407576040517f08c379a00000000000000000000000000000000000000000000000000000000081526004016113fe90613aa2565b60405180910390fd5b601160019054906101000a900460ff1615611457576040517f08c379a000000000000000000000000000000000000000000000000000000000815260040161144e906139e2565b60405180910390fd5b6001601160016101000a81548160ff0219169083151502179055507f228bde8d7b3e6d4daac3ece35c4b1678d183c118eacf7a2e50767e7ec667dfc8600c54600d546114a39190613ed8565b6040516114b09190613cae565b60405180910390a1565b6114c2612e91565b60006014600084815260200190815260200160002090506114e1612e91565b81600001548160000181815250508160010180546114fe90613fa8565b80601f016020809104026020016040519081016040528092919081815260200182805461152a90613fa8565b80156115775780601f1061154c57610100808354040283529160200191611577565b820191906000526020600020905b81548152906001019060200180831161155a57829003601f168201915b5050505050816020018190525081600201805461159390613fa8565b80601f01602080910402602001604051908101604052809291908181526020018280546115bf90613fa8565b801561160c5780601f106115e15761010080835404028352916020019161160c565b820191906000526020600020905b8154815290600101906020018083116115ef57829003601f168201915b5050505050816040018190525081600301805461162890613fa8565b80601f016020809104026020016040519081016040528092919081815260200182805461165490613fa8565b80156116a15780601f10611676576101008083540402835291602001916116a1565b820191906000526020600020905b81548152906001019060200180831161168457829003601f168201915b5050505050816060018190525081600401548160800181815250508160050160009054906101000a900473ffffffffffffffffffffffffffffffffffffffff168160a0019073ffffffffffffffffffffffffffffffffffffffff16908173ffffffffffffffffffffffffffffffffffffffff16815250508160050160149054906101000a900460ff168160c001901515908115158152505081600601548160e001818152505081600701548161010001818152505081600801805461176590613fa8565b80601f016020809104026020016040519081016040528092919081815260200182805461179190613fa8565b80156117de5780601f106117b3576101008083540402835291602001916117de565b820191906000526020600020905b8154815290600101906020018083116117c157829003601f168201915b50505050508161012001819052508160090180546117fb90613fa8565b80601f016020809104026020016040519081016040528092919081815260200182805461182790613fa8565b80156118745780601f1061184957610100808354040283529160200191611874565b820191906000526020600020905b81548152906001019060200180831161185757829003601f168201915b505050505081610140018190525081600a0160009054906101000a900460ff16816101600190151590811515815250508092505050919050565b60105481565b6000601460008381526020019081526020016000209050601260003373ffffffffffffffffffffffffffffffffffffffff1673ffffffffffffffffffffffffffffffffffffffff16815260200190815260200160002060009054906101000a900460ff16611957576040517f08c379a000000000000000000000000000000000000000000000000000000000815260040161194e90613a62565b60405180910390fd5b80600a0160009054906101000a900460ff16156119a9576040517f08c379a00000000000000000000000000000000000000000000000000000000081526004016119a090613b02565b60405180910390fd5b8060050160149054906101000a900460ff16156119fb576040517f08c379a00000000000000000000000000000000000000000000000000000000081526004016119f290613962565b60405180910390fd5b611a053383611f01565b15611a45576040517f08c379a0000000000000000000000000000000000000000000000000000000008152600401611a3c90613a22565b60405180910390fd5b806007016000815480929190611a5a9061400b565b9190505550600281600b0160003373ffffffffffffffffffffffffffffffffffffffff1673ffffffffffffffffffffffffffffffffffffffff168152602001908152602001600020819055507fd8c0741cd95f4e648a7d4557b5784a862cc1cedadd79801b595fbea90e3533f733838360070154604051611add939291906138ce565b60405180910390a15050565b6000601560009054906101000a900473ffffffffffffffffffffffffffffffffffffffff1673ffffffffffffffffffffffffffffffffffffffff163373ffffffffffffffffffffffffffffffffffffffff1614611b7b576040517f08c379a0000000000000000000000000000000000000000000000000000000008152600401611b7290613a82565b60405180910390fd5b600e54905090565b6014602052806000526040600020600091509050806000015490806001018054611bac90613fa8565b80601f0160208091040260200160405190810160405280929190818152602001828054611bd890613fa8565b8015611c255780601f10611bfa57610100808354040283529160200191611c25565b820191906000526020600020905b815481529060010190602001808311611c0857829003601f168201915b505050505090806002018054611c3a90613fa8565b80601f0160208091040260200160405190810160405280929190818152602001828054611c6690613fa8565b8015611cb35780601f10611c8857610100808354040283529160200191611cb3565b820191906000526020600020905b815481529060010190602001808311611c9657829003601f168201915b505050505090806003018054611cc890613fa8565b80601f0160208091040260200160405190810160405280929190818152602001828054611cf490613fa8565b8015611d415780601f10611d1657610100808354040283529160200191611d41565b820191906000526020600020905b815481529060010190602001808311611d2457829003601f168201915b5050505050908060040154908060050160009054906101000a900473ffffffffffffffffffffffffffffffffffffffff16908060050160149054906101000a900460ff1690806006015490806007015490806008018054611da190613fa8565b80601f0160208091040260200160405190810160405280929190818152602001828054611dcd90613fa8565b8015611e1a5780601f10611def57610100808354040283529160200191611e1a565b820191906000526020600020905b815481529060010190602001808311611dfd57829003601f168201915b505050505090806009018054611e2f90613fa8565b80601f0160208091040260200160405190810160405280929190818152602001828054611e5b90613fa8565b8015611ea85780601f10611e7d57610100808354040283529160200191611ea8565b820191906000526020600020905b815481529060010190602001808311611e8b57829003601f168201915b50505050509080600a0160009054906101000a900460ff1690508c565b600f5481565b60008060008060146000868152602001908152602001600020905080600601548160070154600f54935093509350509193909250565b6000601260008473ffffffffffffffffffffffffffffffffffffffff1673ffffffffffffffffffffffffffffffffffffffff16815260200190815260200160002060009054906101000a900460ff16611f8f576040517f08c379a0000000000000000000000000000000000000000000000000000000008152600401611f8690613b22565b60405180910390fd5b6000601460008481526020019081526020016000209050600081600b0160008673ffffffffffffffffffffffffffffffffffffffff1673ffffffffffffffffffffffffffffffffffffffff168152602001908152602001600020541415611ffa576000915050612000565b60019150505b92915050565b6000600b60009054906101000a900473ffffffffffffffffffffffffffffffffffffffff1673ffffffffffffffffffffffffffffffffffffffff163373ffffffffffffffffffffffffffffffffffffffff1614612098576040517f08c379a000000000000000000000000000000000000000000000000000000000815260040161208f906139a2565b60405180910390fd5b601360008154809291906120ab9061400b565b9190505590506000601460008381526020019081526020016000209050818160000181905550888160010190805190602001906120e9929190612f0c565b5087816002019080519060200190612102929190612f0c565b50868160040181905550848160050160006101000a81548173ffffffffffffffffffffffffffffffffffffffff021916908373ffffffffffffffffffffffffffffffffffffffff16021790555085816003019080519060200190612167929190612f0c565b5083816008019080519060200190612180929190612f0c565b5082816009019080519060200190612199929190612f0c565b5060008160050160146101000a81548160ff0219169083151502179055506000816006018190555060008160070181905550600081600a0160006101000a81548160ff0219169083151502179055507fa56ff5af4615f68b6691437c1c71588277670ee3aa965a731cc319e5ef0ac71c826040516122179190613b86565b60405180910390a150979650505050505050565b6000601760003373ffffffffffffffffffffffffffffffffffffffff1673ffffffffffffffffffffffffffffffffffffffff16815260200190815260200160002060009054906101000a900460ff166122b9576040517f08c379a00000000000000000000000000000000000000000000000000000000081526004016122b090613ae2565b60405180910390fd5b60011515601160019054906101000a900460ff16151514806122ee575060011515601160009054906101000a900460ff161515145b61232d576040517f08c379a000000000000000000000000000000000000000000000000000000000815260040161232490613982565b60405180910390fd5b601860003373ffffffffffffffffffffffffffffffffffffffff1673ffffffffffffffffffffffffffffffffffffffff168152602001908152602001600020549050600c548161237d9190613e7e565b9050600d548161238d9190613e4d565b905090565b601160009054906101000a900460ff1681565b601560009054906101000a900473ffffffffffffffffffffffffffffffffffffffff1681565b60135481565b600b60009054906101000a900473ffffffffffffffffffffffffffffffffffffffff1673ffffffffffffffffffffffffffffffffffffffff163373ffffffffffffffffffffffffffffffffffffffff1614612461576040517f08c379a0000000000000000000000000000000000000000000000000000000008152600401612458906139a2565b60405180910390fd5b601160009054906101000a900460ff16156124b1576040517f08c379a00000000000000000000000000000000000000000000000000000000081526004016124a890613aa2565b60405180910390fd5b601160019054906101000a900460ff1615612501576040517f08c379a00000000000000000000000000000000000000000000000000000000081526004016124f8906139e2565b60405180910390fd5b6001601160006101000a81548160ff0219169083151502179055507f739de6489fb6bd59f9572597d4a03fe6e7c81556c531378bda06e66475dc637d8160405161254b9190613920565b60405180910390a150565b6000601560009054906101000a900473ffffffffffffffffffffffffffffffffffffffff1673ffffffffffffffffffffffffffffffffffffffff163373ffffffffffffffffffffffffffffffffffffffff16146125e8576040517f08c379a00000000000000000000000000000000000000000000000000000000081526004016125df90613a82565b60405180910390fd5b81601560006101000a81548173ffffffffffffffffffffffffffffffffffffffff021916908373ffffffffffffffffffffffffffffffffffffffff160217905550601560009054906101000a900473ffffffffffffffffffffffffffffffffffffffff169050919050565b601760003373ffffffffffffffffffffffffffffffffffffffff1673ffffffffffffffffffffffffffffffffffffffff16815260200190815260200160002060009054906101000a900460ff166126df576040517f08c379a00000000000000000000000000000000000000000000000000000000081526004016126d690613ae2565b60405180910390fd5b60011515601160019054906101000a900460ff1615151480612714575060011515601160009054906101000a900460ff161515145b612753576040517f08c379a000000000000000000000000000000000000000000000000000000000815260040161274a90613982565b60405180910390fd5b6000601860003373ffffffffffffffffffffffffffffffffffffffff1673ffffffffffffffffffffffffffffffffffffffff168152602001908152602001600020541161279f57600080fd5b6000601860003373ffffffffffffffffffffffffffffffffffffffff1673ffffffffffffffffffffffffffffffffffffffff1681526020019081526020016000205490506000600c54826127f39190613e7e565b9050600d54816128039190613e4d565b90506000612815826005612710612df2565b90506000601860003373ffffffffffffffffffffffffffffffffffffffff1673ffffffffffffffffffffffffffffffffffffffff1681526020019081526020016000208190555081600c600082825461286e9190613ed8565b9250508190555080600e60008282546128879190613df7565b92505081905550808261289a9190613ed8565b915060003390508073ffffffffffffffffffffffffffffffffffffffff166108fc849081150290604051600060405180830381858888f193505050501580156128e7573d6000803e3d6000fd5b5050505050565b601160019054906101000a900460ff1681565b601560009054906101000a900473ffffffffffffffffffffffffffffffffffffffff1673ffffffffffffffffffffffffffffffffffffffff163373ffffffffffffffffffffffffffffffffffffffff1614612991576040517f08c379a000000000000000000000000000000000000000000000000000000000815260040161298890613a82565b60405180910390fd5b6000600e54116129d6576040517f08c379a00000000000000000000000000000000000000000000000000000000081526004016129cd90613a02565b60405180910390fd5b6000600e5490506000600e81905550601660009054906101000a900473ffffffffffffffffffffffffffffffffffffffff1673ffffffffffffffffffffffffffffffffffffffff166108fc829081150290604051600060405180830381858888f19350505050158015612a4d573d6000803e3d6000fd5b5050565b600c5481565b6000601460008381526020019081526020016000209050601260003373ffffffffffffffffffffffffffffffffffffffff1673ffffffffffffffffffffffffffffffffffffffff16815260200190815260200160002060009054906101000a900460ff16612afa576040517f08c379a0000000000000000000000000000000000000000000000000000000008152600401612af190613a62565b60405180910390fd5b80600a0160009054906101000a900460ff1615612b4c576040517f08c379a0000000000000000000000000000000000000000000000000000000008152600401612b4390613b02565b60405180910390fd5b8060050160149054906101000a900460ff1615612b9e576040517f08c379a0000000000000000000000000000000000000000000000000000000008152600401612b9590613962565b60405180910390fd5b612ba83383611f01565b15612be8576040517f08c379a0000000000000000000000000000000000000000000000000000000008152600401612bdf90613a22565b60405180910390fd5b806006016000815480929190612bfd9061400b565b9190505550600181600b0160003373ffffffffffffffffffffffffffffffffffffffff1673ffffffffffffffffffffffffffffffffffffffff168152602001908152602001600020819055507fc722aeb354db7ce1dfb5f05d6537417c8b86b0e254d60ad3835a1b155862a42a33838360060154604051612c80939291906138ce565b60405180910390a15050565b600b60009054906101000a900473ffffffffffffffffffffffffffffffffffffffff1673ffffffffffffffffffffffffffffffffffffffff163373ffffffffffffffffffffffffffffffffffffffff1614612d1c576040517f08c379a0000000000000000000000000000000000000000000000000000000008152600401612d13906139a2565b60405180910390fd5b60146000838152602001908152602001600020600a0160009054906101000a900460ff1615612d80576040517f08c379a0000000000000000000000000000000000000000000000000000000008152600401612d7790613b02565b60405180910390fd5b6000601460008481526020019081526020016000209050600181600a0160006101000a81548160ff0219169083151502179055507fd27e3d9a9ae0fb728bfbdb457c9b09290886c043b331b9995192cc7f7129c9b18383604051612de5929190613ba1565b60405180910390a1505050565b6000808490508381612e049190613e7e565b90508281612e129190613e4d565b9050809150509392505050565b604051806101600160405280600073ffffffffffffffffffffffffffffffffffffffff1681526020016060815260200160608152602001606081526020016060815260200160008152602001600015158152602001606081526020016060815260200160608152602001606081525090565b6040518061018001604052806000815260200160608152602001606081526020016060815260200160008152602001600073ffffffffffffffffffffffffffffffffffffffff168152602001600015158152602001600081526020016000815260200160608152602001606081526020016000151581525090565b828054612f1890613fa8565b90600052602060002090601f016020900481019282612f3a5760008555612f81565b82601f10612f5357805160ff1916838001178555612f81565b82800160010185558215612f81579182015b82811115612f80578251825591602001919060010190612f65565b5b509050612f8e9190612f92565b5090565b5b80821115612fab576000816000905550600101612f93565b5090565b6000612fc2612fbd84613d99565b613d74565b905082815260208101848484011115612fde57612fdd614115565b5b612fe9848285613f66565b509392505050565b60008135905061300081614628565b92915050565b6000813590506130158161463f565b92915050565b60008135905061302a81614656565b92915050565b600082601f83011261304557613044614110565b5b8135613055848260208601612faf565b91505092915050565b60008135905061306d8161466d565b92915050565b6000602082840312156130895761308861411f565b5b600061309784828501612ff1565b91505092915050565b600080604083850312156130b7576130b661411f565b5b60006130c585828601612ff1565b92505060206130d68582860161305e565b9150509250929050565b6000602082840312156130f6576130f561411f565b5b60006131048482850161301b565b91505092915050565b6000602082840312156131235761312261411f565b5b600082013567ffffffffffffffff8111156131415761314061411a565b5b61314d84828501613030565b91505092915050565b600080600080600080600060e0888a0312156131755761317461411f565b5b600088013567ffffffffffffffff8111156131935761319261411a565b5b61319f8a828b01613030565b975050602088013567ffffffffffffffff8111156131c0576131bf61411a565b5b6131cc8a828b01613030565b96505060406131dd8a828b0161305e565b955050606088013567ffffffffffffffff8111156131fe576131fd61411a565b5b61320a8a828b01613030565b945050608061321b8a828b01613006565b93505060a088013567ffffffffffffffff81111561323c5761323b61411a565b5b6132488a828b01613030565b92505060c088013567ffffffffffffffff8111156132695761326861411a565b5b6132758a828b01613030565b91505092959891949750929550565b60006020828403121561329a5761329961411f565b5b60006132a88482850161305e565b91505092915050565b600080604083850312156132c8576132c761411f565b5b60006132d68582860161305e565b925050602083013567ffffffffffffffff8111156132f7576132f661411a565b5b61330385828601613030565b9150509250929050565b61331681613f1e565b82525050565b61332581613f1e565b82525050565b61333481613f0c565b82525050565b61334381613f0c565b82525050565b61335281613f30565b82525050565b61336181613f30565b82525050565b600061337282613dca565b61337c8185613dd5565b935061338c818560208601613f75565b61339581614124565b840191505092915050565b60006133ab82613dca565b6133b58185613de6565b93506133c5818560208601613f75565b6133ce81614124565b840191505092915050565b60006133e6602783613de6565b91506133f182614135565b604082019050919050565b6000613409602c83613de6565b915061341482614184565b604082019050919050565b600061342c606183613de6565b9150613437826141d3565b608082019050919050565b600061344f602383613de6565b915061345a8261426e565b604082019050919050565b6000613472604583613de6565b915061347d826142bd565b606082019050919050565b6000613495602583613de6565b91506134a082614332565b604082019050919050565b60006134b8601a83613de6565b91506134c382614381565b602082019050919050565b60006134db601683613de6565b91506134e6826143aa565b602082019050919050565b60006134fe601983613de6565b9150613509826143d3565b602082019050919050565b6000613521602f83613de6565b915061352c826143fc565b604082019050919050565b6000613544603683613de6565b915061354f8261444b565b604082019050919050565b6000613567602883613de6565b91506135728261449a565b604082019050919050565b600061358a603683613de6565b9150613595826144e9565b604082019050919050565b60006135ad603583613de6565b91506135b882614538565b604082019050919050565b60006135d0603883613de6565b91506135db82614587565b604082019050919050565b60006135f3601e83613de6565b91506135fe826145d6565b602082019050919050565b6000613616601d83613de6565b9150613621826145ff565b602082019050919050565b600061016083016000830151613645600086018261332b565b506020830151848203602086015261365d8282613367565b915050604083015184820360408601526136778282613367565b915050606083015184820360608601526136918282613367565b915050608083015184820360808601526136ab8282613367565b91505060a08301516136c060a086018261386c565b5060c08301516136d360c0860182613349565b5060e083015184820360e08601526136eb8282613367565b9150506101008301518482036101008601526137078282613367565b9150506101208301518482036101208601526137238282613367565b91505061014083015184820361014086015261373f8282613367565b9150508091505092915050565b600061018083016000830151613765600086018261386c565b506020830151848203602086015261377d8282613367565b915050604083015184820360408601526137978282613367565b915050606083015184820360608601526137b18282613367565b91505060808301516137c6608086018261386c565b5060a08301516137d960a086018261330d565b5060c08301516137ec60c0860182613349565b5060e08301516137ff60e086018261386c565b5061010083015161381461010086018261386c565b5061012083015184820361012086015261382e8282613367565b91505061014083015184820361014086015261384a8282613367565b915050610160830151613861610160860182613349565b508091505092915050565b61387581613f5c565b82525050565b61388481613f5c565b82525050565b600060208201905061389f600083018461333a565b92915050565b60006040820190506138ba600083018561333a565b6138c7602083018461387b565b9392505050565b60006060820190506138e3600083018661333a565b6138f0602083018561387b565b6138fd604083018461387b565b949350505050565b600060208201905061391a6000830184613358565b92915050565b6000602082019050818103600083015261393a81846133a0565b905092915050565b6000602082019050818103600083015261395b816133d9565b9050919050565b6000602082019050818103600083015261397b816133fc565b9050919050565b6000602082019050818103600083015261399b8161341f565b9050919050565b600060208201905081810360008301526139bb81613442565b9050919050565b600060208201905081810360008301526139db81613465565b9050919050565b600060208201905081810360008301526139fb81613488565b9050919050565b60006020820190508181036000830152613a1b816134ab565b9050919050565b60006020820190508181036000830152613a3b816134ce565b9050919050565b60006020820190508181036000830152613a5b816134f1565b9050919050565b60006020820190508181036000830152613a7b81613514565b9050919050565b60006020820190508181036000830152613a9b81613537565b9050919050565b60006020820190508181036000830152613abb8161355a565b9050919050565b60006020820190508181036000830152613adb8161357d565b9050919050565b60006020820190508181036000830152613afb816135a0565b9050919050565b60006020820190508181036000830152613b1b816135c3565b9050919050565b60006020820190508181036000830152613b3b816135e6565b9050919050565b60006020820190508181036000830152613b5c818461362c565b905092915050565b60006020820190508181036000830152613b7e818461374c565b905092915050565b6000602082019050613b9b600083018461387b565b92915050565b6000604082019050613bb6600083018561387b565b8181036020830152613bc881846133a0565b90509392505050565b600061018082019050613be7600083018f61387b565b8181036020830152613bf9818e6133a0565b90508181036040830152613c0d818d6133a0565b90508181036060830152613c21818c6133a0565b9050613c30608083018b61387b565b613c3d60a083018a61331c565b613c4a60c0830189613358565b613c5760e083018861387b565b613c6561010083018761387b565b818103610120830152613c7881866133a0565b9050818103610140830152613c8d81856133a0565b9050613c9d610160830184613358565b9d9c50505050505050505050505050565b6000604082019050613cc3600083018461387b565b8181036020830152613cd481613609565b905092915050565b6000606082019050613cf1600083018661387b565b613cfe602083018561387b565b613d0b604083018461387b565b949350505050565b600060c082019050613d28600083018961387b565b613d35602083018861387b565b613d42604083018761387b565b613d4f606083018661387b565b613d5c6080830185613358565b613d6960a0830184613358565b979650505050505050565b6000613d7e613d8f565b9050613d8a8282613fda565b919050565b6000604051905090565b600067ffffffffffffffff821115613db457613db36140e1565b5b613dbd82614124565b9050602081019050919050565b600081519050919050565b600082825260208201905092915050565b600082825260208201905092915050565b6000613e0282613f5c565b9150613e0d83613f5c565b9250827fffffffffffffffffffffffffffffffffffffffffffffffffffffffffffffffff03821115613e4257613e41614054565b5b828201905092915050565b6000613e5882613f5c565b9150613e6383613f5c565b925082613e7357613e72614083565b5b828204905092915050565b6000613e8982613f5c565b9150613e9483613f5c565b9250817fffffffffffffffffffffffffffffffffffffffffffffffffffffffffffffffff0483118215151615613ecd57613ecc614054565b5b828202905092915050565b6000613ee382613f5c565b9150613eee83613f5c565b925082821015613f0157613f00614054565b5b828203905092915050565b6000613f1782613f3c565b9050919050565b6000613f2982613f3c565b9050919050565b60008115159050919050565b600073ffffffffffffffffffffffffffffffffffffffff82169050919050565b6000819050919050565b82818337600083830152505050565b60005b83811015613f93578082015181840152602081019050613f78565b83811115613fa2576000848401525b50505050565b60006002820490506001821680613fc057607f821691505b60208210811415613fd457613fd36140b2565b5b50919050565b613fe382614124565b810181811067ffffffffffffffff82111715614002576140016140e1565b5b80604052505050565b600061401682613f5c565b91507fffffffffffffffffffffffffffffffffffffffffffffffffffffffffffffffff82141561404957614048614054565b5b600182019050919050565b7f4e487b7100000000000000000000000000000000000000000000000000000000600052601160045260246000fd5b7f4e487b7100000000000000000000000000000000000000000000000000000000600052601260045260246000fd5b7f4e487b7100000000000000000000000000000000000000000000000000000000600052602260045260246000fd5b7f4e487b7100000000000000000000000000000000000000000000000000000000600052604160045260246000fd5b600080fd5b600080fd5b600080fd5b600080fd5b6000601f19601f8301169050919050565b7f56656e646f72206973207061696420616c726561647920666f7220746869732060008201527f7265717565737400000000000000000000000000000000000000000000000000602082015250565b7f5265717565737420616c726561647920636f6d706c6574656420616e6420766560008201527f6e646f7220697320706169640000000000000000000000000000000000000000602082015250565b7f596f752063616e206f6e6c792074616b6520726566756e64206166746572207460008201527f68652070726f6a6563742069732066696e6973686564206f6e2063616e63656c60208201527f6c6564206279207468652063726561746f72206f66207468652070726f6a656360408201527f7400000000000000000000000000000000000000000000000000000000000000606082015250565b7f4f6e6c792043726561746f722063616e2063616c6c20746869732066756e637460008201527f696f6e0000000000000000000000000000000000000000000000000000000000602082015250565b7f526571756972657320617070726f76616c732066726f6d206174206c6561737460008201527f206d6f7265207468616e2068616c66206f6620746f74616c20636f6e7472696260208201527f75746f7273000000000000000000000000000000000000000000000000000000604082015250565b7f50726f6a65637420616c72656164792066696e6973686564207375636365737360008201527f66756c6c79000000000000000000000000000000000000000000000000000000602082015250565b7f5468657265206973206e6f206665657320617661696c61626c65000000000000600082015250565b7f596f752063616e20766f7465206f6e6c79206f6e636500000000000000000000600082015250565b7f52652d656e7472616e742063616c6c2064657465637465642100000000000000600082015250565b7f596f75206e65656420746f20626520616e20617070726f76657220746f20617060008201527f70726f7665206120726571756573740000000000000000000000000000000000602082015250565b7f4f6e6c7920646576656c6f70657273206f6620746869732070726f6a6563742060008201527f63616e2063616c6c20746869732066756e6374696f6e00000000000000000000602082015250565b7f50726f6a65637420616c72656164792063616e63656c6c65642062792074686560008201527f2043726561746f72000000000000000000000000000000000000000000000000602082015250565b7f42616c616e636520696e20706f6f6c206d757374206265206d6f72652074686160008201527f6e207468652072657175657374656420616d6f756e7400000000000000000000602082015250565b7f596f75206d7573742068616420636f6e747269627574656420746f207468652060008201527f70726f6a65637420746f2067657420726566756e640000000000000000000000602082015250565b7f5265717565737420616c72656164792063616e63656c6c65642062792074686560008201527f2063726561746f72206f6620746869732050726f6a6563740000000000000000602082015250565b7f596f75206d757374206265206120617070726f76657220746f20766f74650000600082015250565b7f50726f6a6563742046696e6973686564205375636365737366756c6c79000000600082015250565b61463181613f0c565b811461463c57600080fd5b50565b61464881613f1e565b811461465357600080fd5b50565b61465f81613f30565b811461466a57600080fd5b50565b61467681613f5c565b811461468157600080fd5b5056fea2646970667358221220bea91f473122b1205a052577cf5717c756d2d72a6646e9c8878be4f1f31cd60f64736f6c63430008070033",
  "immutableReferences": {},
  "source": "// SPDX-License-Identifier: MIT\r\n\r\npragma solidity >=0.4.16 < 0.9.0;\r\npragma abicoder v2;\r\n\r\n// Importing OpenZeppelin's SafeMath Implementation\r\n// No longer needed after solidity 0.8.0\r\n// import \"./libraries/SafeMath.sol\";\r\n\r\ncontract Project {\r\n    // using SafeMath for uint256;\r\n    \r\n    event Contributed(address _from, uint _value);\r\n    event CreatedRequest(uint requestID);\r\n    event ApprovedReq(address _from, uint _requestID, uint _totalApprovals);\r\n    event DeniedReq(address _from, uint _requestID, uint _totalDenials);\r\n    event CancelledReq(uint _requestID, string _reason);\r\n    event FinalizedReq(uint _requestID);\r\n    event ProjectCancelled(string _reason);\r\n    event ProjectFinished(uint _value, string _msg);\r\n    \r\n    struct Request {\r\n        uint id;\r\n        string title;\r\n        string desc;\r\n        string milestoneId;\r\n        uint256 value;\r\n        address payable vendorAddress;\r\n        bool isComplete;\r\n        uint approvalsCount;\r\n        uint denialsCount;\r\n        string imgUrl;\r\n        string filesUrl;\r\n        bool cancelled;\r\n        mapping (address => uint) votes;    // 1 for positive vote, 2 for negative vote\r\n    }\r\n    \r\n    struct BasicDetails {\r\n        address owner;\r\n        string title;\r\n        string description;\r\n        string imageUrl;\r\n        string folderUrl;\r\n        uint256 minContribution;\r\n        bool isMap;\r\n        string postalAddress;\r\n        string lat;\r\n        string lng;\r\n        string placeName;\r\n    }\r\n    \r\n    BasicDetails basic;\r\n    \r\n    struct RequestDetails {\r\n        uint id;\r\n        string title;\r\n        string desc;\r\n        string milestoneId;\r\n        uint256 value;\r\n        address payable vendorAddress;\r\n        bool isComplete;\r\n        uint approvalsCount;\r\n        uint denialsCount;\r\n        string imgUrl;\r\n        string filesUrl;\r\n        bool cancelled;\r\n    }\r\n    \r\n    \r\n    // creator is the Project Creator\r\n    address public creator;\r\n    uint256 public currentBalance = 0;\r\n    uint256 public totalPoolBalance = 0;\r\n    uint256 fees = 0;\r\n    uint public approversCount = 0;\r\n    uint public contributorsCount = 0;\r\n    bool public cancelled = false;\r\n    bool public finished = false;\r\n    \r\n    // only signed in accounts\r\n    mapping(address => bool) public approvers;\r\n    uint public numRequests;\r\n    mapping(uint => Request) public requests;\r\n    \r\n    // Location and Place details\r\n    \r\n    address public devs = 0x087F5052fBcD7C02DD45fb9907C57F1EccC2bE25;\r\n    address payable devAddress = payable(devs);\r\n    \r\n    // all contributors\r\n    mapping (address => bool) public contributors;\r\n    \r\n    // total contributions of all contributors\r\n    mapping (address => uint256) public contributions;\r\n    \r\n    modifier onlyCreator() {\r\n        require(msg.sender == creator, \"Only Creator can call this function\");\r\n        _;\r\n    }\r\n    \r\n    modifier onlyDevs() {\r\n        require(msg.sender == devs, \"Only developers of this project can call this function\");\r\n        _;\r\n    }\r\n    \r\n    constructor (\r\n        string memory _projectTitle, \r\n        string memory _projectDesc, \r\n        uint256 _minContributionAmount, \r\n        string memory _imgUrl, \r\n        string memory _folderUrl,\r\n        bool _isMap,\r\n        string memory _postalAddress,\r\n        string memory _latitude,\r\n        string memory _longitude,\r\n        string memory _placeName,\r\n        address _creator\r\n    ) {\r\n        creator = _creator;\r\n        basic.owner = creator;\r\n        basic.title = _projectTitle;\r\n        basic.description = _projectDesc;\r\n        basic.imageUrl = _imgUrl;\r\n        basic.folderUrl = _folderUrl;\r\n        basic.minContribution = _minContributionAmount;\r\n        basic.isMap = _isMap;\r\n        basic.postalAddress = _postalAddress;\r\n        basic.lat = _latitude;\r\n        basic.lng = _longitude;\r\n        basic.placeName = _placeName;\r\n    }\r\n\r\n    function getLiveDetails() public view returns(\r\n        uint ,\r\n        uint ,\r\n        uint ,uint,\r\n        bool,bool\r\n    ) {\r\n        uint _currentBalance = currentBalance;\r\n        uint _totalPoolBalance = totalPoolBalance;\r\n        uint _approversCount = approversCount;\r\n        uint _contributorsCount = contributorsCount;\r\n        bool _cancelled = cancelled;\r\n        bool _finished = finished;\r\n        \r\n        return (\r\n            _currentBalance,\r\n            _totalPoolBalance,\r\n            _approversCount,\r\n            _contributorsCount,\r\n            _cancelled,\r\n            _finished\r\n            );\r\n    }\r\n            \r\n    function getBasicDetails () public view returns (BasicDetails memory) {\r\n        return basic;\r\n    }\r\n    \r\n    function getRequestByIndex(uint _requestID) public view returns (RequestDetails memory) {\r\n        Request storage req = requests[_requestID];\r\n        \r\n        RequestDetails memory reqDetail;\r\n        \r\n        reqDetail.id = req.id;\r\n        reqDetail.title = req.title;\r\n        reqDetail.desc = req.desc;\r\n        reqDetail.milestoneId = req.milestoneId;\r\n        reqDetail.value = req.value;\r\n        reqDetail.vendorAddress = req.vendorAddress;\r\n        reqDetail.isComplete = req.isComplete;\r\n        reqDetail.approvalsCount = req.approvalsCount;\r\n        reqDetail.denialsCount = req.denialsCount;\r\n        reqDetail.imgUrl = req.imgUrl;\r\n        reqDetail.filesUrl = req.filesUrl;\r\n        reqDetail.cancelled = req.cancelled;\r\n        \r\n        return reqDetail;\r\n    }\r\n    \r\n    function isVoted(address _user, uint _requestID) public view returns (bool) {\r\n        require(approvers[_user], \"You must be a approver to vote\");\r\n        Request storage req = requests[_requestID];\r\n        \r\n        if(req.votes[_user] == 0) {\r\n            return false;\r\n        }\r\n        \r\n        return true;\r\n    }\r\n    \r\n    function getVoteCounts(uint _requestID) public view returns (uint, uint, uint) {\r\n        Request storage req = requests[_requestID];\r\n        \r\n        return (req.approvalsCount, req.denialsCount, approversCount);\r\n    }\r\n\r\n    // To create requests\r\n    function createRequests(\r\n        string memory _reqTitle,\r\n        string memory _reqDesc, \r\n        uint256 _value, \r\n        string memory _milestoneId, \r\n        address payable _recipient, \r\n        string memory _imgUrl,\r\n        string memory _filesUrl\r\n    ) public onlyCreator returns (uint requestID) {\r\n        requestID = numRequests++;\r\n        Request storage req = requests[requestID];\r\n        req.id = requestID;\r\n        req.title = _reqTitle;\r\n        req.desc = _reqDesc;\r\n        req.value = _value;\r\n        req.vendorAddress = _recipient;\r\n        req.milestoneId = _milestoneId;\r\n        req.imgUrl = _imgUrl;\r\n        req.filesUrl = _filesUrl;\r\n        req.isComplete = false;\r\n        req.approvalsCount = 0;\r\n        req.denialsCount = 0;\r\n        req.cancelled = false;\r\n        \r\n        emit CreatedRequest(requestID);\r\n    }\r\n    \r\n    // calc 0.05% fee\r\n    function percentage(uint256 value, uint256 reqParts, uint256 totalParts) internal pure returns (uint256) {\r\n        uint256 total = value;\r\n        total *= (reqParts);\r\n        total /= (totalParts);\r\n        return total;\r\n    }\r\n    \r\n    // Sets the developers account address, and only be called by the developers\r\n    function setDevsNewAddress(address _devs) external onlyDevs returns (address) {\r\n        devs = _devs;\r\n        return devs;\r\n    }\r\n    \r\n    // Cancels the request, and can only be called by the creator of the project\r\n    function cancelRequest(uint _requestID, string memory _reason) external onlyCreator {\r\n        require(!requests[_requestID].cancelled, \"Request already cancelled by the creator of this Project\");\r\n        Request storage req = requests[_requestID];\r\n        req.cancelled = true;\r\n        \r\n        emit CancelledReq(_requestID, _reason);\r\n    }\r\n    \r\n    // Cancels the project, and can only be called by the creator of the project\r\n    function cancelProject(string memory _reason) external onlyCreator {\r\n        require(!cancelled, \"Project already cancelled by the Creator\");\r\n        require(!finished, \"Project already finished successfully\");\r\n        cancelled = true;\r\n        \r\n        emit ProjectCancelled(_reason);\r\n    }\r\n    \r\n    // After the project is finished this function is called, and can only be called by the creator of the project\r\n    function finishProject() external onlyCreator {\r\n        require(!cancelled, \"Project already cancelled by the Creator\");\r\n        require(!finished, \"Project already finished successfully\");\r\n        finished = true;\r\n        \r\n        emit ProjectFinished(totalPoolBalance - currentBalance, \"Project Finished Successfully\");\r\n    }\r\n    \r\n    // Check how much fees is accumulated till now, can only be called by the devs\r\n    function checkFees() external view onlyDevs returns (uint256) {\r\n        return fees;\r\n    }\r\n    \r\n    // Transfers the fee amount to developers address\r\n    function transferFees() external onlyDevs {\r\n        require(fees > 0, \"There is no fees available\");\r\n        uint256 feeAmount = fees;\r\n        fees = 0;\r\n        devAddress.transfer(feeAmount);\r\n    }\r\n    \r\n    // Contribute function\r\n    function contribute(bool _isSignedIn) public payable {\r\n        uint256 fee = percentage(msg.value, 5, 10000);\r\n        uint256 amount = msg.value;\r\n        amount -= fee;\r\n        currentBalance += (amount);\r\n        totalPoolBalance += (amount);\r\n        fees += (fee);\r\n        \r\n        if(msg.value >= basic.minContribution) {\r\n            if(_isSignedIn == true) {\r\n                approvers[msg.sender] = true;\r\n                approversCount++;\r\n            }\r\n            contributions[msg.sender] += (amount);\r\n            contributorsCount++;\r\n            contributors[msg.sender] = true;\r\n        }\r\n        \r\n        emit Contributed(msg.sender, msg.value);\r\n    }\r\n    \r\n    // Approvers can call this function to approve a particular request\r\n    function approveRequest (uint requestID) public {\r\n        Request storage req = requests[requestID];\r\n        \r\n        require(approvers[msg.sender], \"You need to be an approver to approve a request\");\r\n        require(!req.cancelled, \"Request already cancelled by the creator of this Project\");\r\n        require(!req.isComplete, \"Request already completed and vendor is paid\");\r\n        require(!(isVoted(msg.sender, requestID)), \"You can vote only once\");\r\n        \r\n        req.approvalsCount++;\r\n        req.votes[msg.sender] = 1;\r\n        \r\n        emit ApprovedReq(msg.sender, requestID, req.approvalsCount);\r\n    }\r\n    \r\n    // Deniers can call this function to approve a particular request\r\n    function denyRequest (uint requestID) public {\r\n        Request storage req = requests[requestID];\r\n        \r\n        require(approvers[msg.sender], \"You need to be an approver to approve a request\");\r\n        require(!req.cancelled, \"Request already cancelled by the creator of this Project\");\r\n        require(!req.isComplete, \"Request already completed and vendor is paid\");\r\n        require(!(isVoted(msg.sender, requestID)), \"You can vote only once\");\r\n        \r\n        req.denialsCount++;\r\n        req.votes[msg.sender] = 2;\r\n        \r\n        emit DeniedReq(msg.sender, requestID, req.denialsCount);\r\n    }\r\n    \r\n    // After voting, creator will call this function to send the money to the vendor\r\n    bool locked = false;    // just to prevent re-entrant call from a contract\r\n    function finalizeRequest (uint _requestID) public onlyCreator {\r\n        Request storage req = requests[_requestID];\r\n        \r\n        require(!req.cancelled, \"Request already cancelled by the creator of this Project\");\r\n        require(!req.isComplete, \"Vendor is paid already for this request\");\r\n        require(currentBalance >= req.value, \"Balance in pool must be more than the requested amount\");\r\n        require(req.approvalsCount > approversCount/2, \"Requires approvals from at least more than half of total contributors\");\r\n        \r\n        require(!locked, \"Re-entrant call detected!\");\r\n        locked = true;\r\n        \r\n        uint256 fee = percentage(req.value, 5, 10000);\r\n        \r\n        uint256 amount = req.value;\r\n        amount -= (fee);\r\n        currentBalance -= (req.value);\r\n        req.value = 0;\r\n        fees += (fee);\r\n        req.isComplete = true;\r\n        \r\n        req.vendorAddress.transfer(amount);\r\n        \r\n        locked = false;\r\n        \r\n        emit FinalizedReq(_requestID);\r\n    }\r\n    \r\n    // To check amount of refund\r\n    function checkRefund() external view returns (uint256 refund) {\r\n        require(contributors[msg.sender], \"You must had contributed to the project to get refund\");\r\n        require(finished == true || cancelled == true, \"You can only take refund after the project is finished on cancelled by the creator of the project\");\r\n        \r\n        refund = contributions[msg.sender];\r\n        refund *= (currentBalance);\r\n        refund /= (totalPoolBalance);\r\n        return refund;\r\n    }\r\n    \r\n    // After the project is finished or cancelled by the creator, contributors can call this function to take back refund\r\n    function getRefund() public {\r\n        require(contributors[msg.sender], \"You must had contributed to the project to get refund\");\r\n        require(finished == true || cancelled == true, \"You can only take refund after the project is finished on cancelled by the creator of the project\");\r\n        require(contributions[msg.sender] > 0);\r\n        \r\n        uint256 amount = contributions[msg.sender];\r\n        uint256 refundAmount = (amount * currentBalance);\r\n        refundAmount /= (totalPoolBalance);\r\n        \r\n        uint256 fee = percentage(refundAmount, 5, 10000);\r\n        contributions[msg.sender] = 0;\r\n        currentBalance -= (refundAmount);\r\n        fees += (fee);\r\n        refundAmount -= (fee);\r\n        \r\n        address payable refundAddress = payable(msg.sender);\r\n        refundAddress.transfer(refundAmount);\r\n    }\r\n}",
  "sourcePath": "D:\\Node projects\\Blockchain Apps\\BizFund-Ethereum-Backend\\contracts\\Project.sol",
  "compiler": {
    "name": "solc",
    "version": "0.8.7+commit.e28d00a7.Emscripten.clang"
  },
  "schemaVersion": "3.4.3",
  "updatedAt": "2021-08-27T11:09:09.964Z",
  "devdoc": {
    "kind": "dev",
    "methods": {},
    "version": 1
  },
  "userdoc": {
    "kind": "user",
    "methods": {},
    "version": 1
  }
}